:100000000C948F060C94B7060C94B7060C94B706A4
:100010000C94B7060C94B7060C94B7060C94B7066C
:100020000C94B7060C94B7060C94DD200C944C216C
:100030000C94B7060C94B7060C94B7060C94B7064C
:100040000C94B7060C94B7060C94B7060C94B7063C
:100050000C94B7060C94B7060C94B7060C947E2348
:100060000C94B7060C94B7060C94B7060C94B7061C
:100070000C94B7060C94B7060C94B7060C94B7060C
:100080000C94B7060C94B7060C94B7060C94B706FC
:100090000C94B7060C94B7060C94B7060C94B706EC
:1000A0000C94B7060C94B7060C94B7066279652ECB
:1000B000526573756D6520616674657220352073B5
:1000C00065636F6E647300506C6561736520726563
:1000D000626F6F7420666F72207468652073657438
:1000E00074696E677320746F2074616B6520656638
:1000F000666563740053657474696E67204D6F6440
:10010000652045786974006C656E6774685F457238
:10011000726F72210075706461746521003E3E004B
:100120003E3E004E45575F646E735365727665724E
:100130003F284E756D626572204F6E6C795F7361FA
:100140006D706C653A31393231363830303130319A
:100150003029006C656E6774685F4572726F72213A
:100160000075706461746521003E3E003E3E004EA5
:1001700045575F676174657761793F284E756D6299
:100180006572204F6E6C795F73616D706C653A318A
:10019000393231363830303130313029006C656ECB
:1001A0006774685F4572726F722100757064617464
:1001B0006521003E3E003E3E004E45575F7375622E
:1001C0006E65743F284E756D626572204F6E6C7956
:1001D0005F73616D706C653A313932313638303069
:1001E0003130313029006C656E6774685F4572721A
:1001F0006F72210075706461746521003E3E003E9F
:100200003E004E45575F49505F6164647265737389
:100210003F284E756D626572204F6E6C795F736119
:100220006D706C653A3139323136383030313031B9
:100230003029006C656E6774685F4572726F722159
:100240000075706461746521003E3E003E3E004EC4
:1002500045575F4D41435F616464726573733F2826
:100260004E756D626572204F6E6C795F73616D7053
:100270006C653A38433146363436454330303029A0
:10028000003E3E00583A4578697400353A646E7312
:1002900053657276657200343A6761746577617987
:1002A00000333A7375626E657400323A495000311A
:1002B0003A4D4143004E756D3F00646E7353657255
:1002C0007665725F00676174657761795F00737549
:1002D000626E65745F0049505F004D41435F0043AB
:1002E000757272656E742061646472657373005612
:1002F00065722E312E330054494D45204F55542000
:100300003230735F454F4C3A4C46004144425344AF
:10031000494F2053657474696E67204D6F64652181
:100320000000000000250028002B002E00310000F6
:100330000000002300260029002C002F00000000F0
:100340000200090F0000030401000C00000000007F
:10035000000000000000000000000000080B000288
:10036000020200000904000001020200000524004E
:1003700010010524010101042402060524060001E0
:100380000705810310004009040100020A00000073
:100390000705020240000007058302400000040335
:1003A000090412010002EF020140EA227800000174
:1003B00001020301556E6B6E6F776E0042726F77AC
:1003C00073657253776974636844494F004D4143C4
:1003D0005F616464726573735F4572726F72003C33
:1003E0002F666F726D3E003C666F726D206D657496
:1003F000686F643D4745543E003C2F666F726D3E0A
:10040000003C6C6162656C20666F723D444F315FE9
:100410004F46463E3C696E70757420747970653D38
:10042000726164696F2069643D444F315F4F464695
:10043000206E616D653D444F312076616C75653D80
:100440004F464620636865636B65643D636865631A
:100450006B6564206F6E636C69636B3D20737562BE
:100460006D697428293E4F46463C2F6C6162656C6D
:100470003E3C2F703E003C703E3C623E343A444F5E
:10048000313C2F623E203A203C6C6162656C2066F4
:100490006F723D444F315F4F4E3E3C696E707574D4
:1004A00020747970653D726164696F2069643D44B0
:1004B0004F315F4F4E206E616D653D444F31207668
:1004C000616C75653D4F4E2020206F6E636C6963D3
:1004D0006B3D207375626D697428293E4F4E3C2F29
:1004E0006C6162656C3E003C6C6162656C20666F9D
:1004F000723D444F315F4F46463E3C696E707574A5
:1005000020747970653D726164696F2069643D444F
:100510004F315F4F4646206E616D653D444F31203F
:1005200076616C75653D4F4646206F6E636C6963FE
:100530006B3D207375626D697428293E4F46463CB9
:100540002F6C6162656C3E3C2F703E003C703E3CFF
:10055000623E343A444F313C2F623E203A203C6C9C
:100560006162656C20666F723D444F315F4F4E3E55
:100570003C696E70757420747970653D7261646950
:100580006F2069643D444F315F4F4E206E616D6551
:100590003D444F312076616C75653D4F4E202063A0
:1005A0006865636B65643D636865636B6564206F54
:1005B0006E636C69636B3D207375626D6974282985
:1005C0003E4F4E3C2F6C6162656C3E003C666F7224
:1005D0006D206D6574686F643D4745543E003C2F47
:1005E000666F726D3E003C6C6162656C20666F7276
:1005F0003D444F305F4F46463E3C696E70757420F7
:10060000747970653D726164696F2069643D444F1F
:10061000305F4F4646206E616D653D444F30207619
:10062000616C75653D4F464620636865636B656424
:100630003D636865636B6564206F6E636C69636BB3
:100640003D207375626D697428293E4F46463C2FE4
:100650006C6162656C3E3C2F703E003C703E3C62BB
:100660003E333A444F303C2F623E203A203C6C618E
:1006700062656C20666F723D444F305F4F4E3E3C6A
:10068000696E70757420747970653D726164696F0C
:100690002069643D444F305F4F4E206E616D653D73
:1006A000444F302076616C75653D4F4E2020206FA1
:1006B0006E636C69636B3D207375626D6974282984
:1006C0003E4F4E3C2F6C6162656C3E003C6C61623B
:1006D000656C20666F723D444F305F4F46463E3C2E
:1006E000696E70757420747970653D726164696FAC
:1006F0002069643D444F305F4F4646206E616D6512
:100700003D444F302076616C75653D4F4646206F05
:100710006E636C69636B3D207375626D6974282923
:100720003E4F46463C2F6C6162656C3E3C2F703EEE
:10073000003C703E3C623E333A444F303C2F623EB8
:10074000203A203C6C6162656C20666F723D444FBC
:10075000305F4F4E3E3C696E7075742074797065E1
:100760003D726164696F2069643D444F305F4F4E54
:10077000206E616D653D444F302076616C75653D3E
:100780004F4E2020636865636B65643D63686563F5
:100790006B6564206F6E636C69636B3D207375627B
:1007A0006D697428293E4F4E3C2F6C6162656C3E2A
:1007B000003C68723E003C703E3C623E323A444926
:1007C000313C2F623E203A203C666F6E7420636F8E
:1007D0006C6F723D7265643E3C623E484947483CDE
:1007E0002F623E3C2F666F6E743E3C2F703E003C85
:1007F000703E3C623E323A4449313C2F623E203AE0
:10080000204C4F573C2F703E003C703E3C623E31C6
:100810003A4449303C2F623E203A203C666F6E7469
:1008200020636F6C6F723D7265643E3C623E484966
:1008300047483C2F623E3C2F666F6E743E3C2F70E3
:100840003E003C703E3C623E313A4449303C2F62AF
:100850003E203A204C4F573C2F703E003C666F7252
:100860006D206D6574686F643D4745543E003C2FB4
:1008700068746D6C3E003C2F626F64793E003C2FC3
:10088000666F6F7465723E003C70207374796C659E
:100890003D746578742D616C69676E3A63656E743A
:1008A00065723B3E3C666F6E742073697A653D27C6
:1008B000322720636F6C6F723D2723383038303811
:1008C00030273E6269742D74726164652D6F6E65A8
:1008D0002E4C54443C6272202F3E3C2F666F6E7447
:1008E0003E3C2F703E003C68723E003C666F6F7469
:1008F00065723E003C2F6469763E003C6469762058
:1009000069643D2273775F64617461223E003C70CC
:100910003E3C666F6E742073697A653D27322720EE
:10092000636F6C6F723D2723383038303830273E84
:10093000726566726573682F33733C6272202F3E56
:100940003C2F666F6E743E3C703E003C703E3C66D1
:100950006F6E742073697A653D27362720636F6C4C
:100960006F723D2723343136394531273E3C623E94
:1009700042726F777365722053776974636820449D
:10098000494F3C2F623E3C2F666F6E743E3C2F7089
:100990003E003C626F6479206F6E6C6F61643D2233
:1009A00047657453776974636844617461282922C8
:1009B0003E003C626F6479207374796C653D2763F7
:1009C0006F6C6F723A72676228302C302C30293B82
:1009D000746578742D616C69676E3A6C6566743BFA
:1009E000273E003C646976207374796C653D2770FE
:1009F000616464696E673A203330707820343070F7
:100A000078203530707820343070783B20273E00D5
:100A10003C2F686561643E003C2F7363726970749B
:100A20003E007D0073657454696D656F7574282789
:100A30004765745377697463684461746128292732
:100A40002C2033303030293B00726571756573742A
:100A50002E73656E64286E756C6C293B007265712F
:100A6000756573742E6F70656E2822474554222C6D
:100A70002022616A61785F73776974636822202B32
:100A8000206E6F63616368652C2074727565293B05
:100A9000007D7D7D7D00646F63756D656E742E676E
:100AA0006574456C656D656E74427949642822737E
:100AB000775F6461746122292E696E6E6572485495
:100AC0004D4C203D20746869732E726573706F6E93
:100AD0007365546578743B0069662028746869738F
:100AE0002E726573706F6E73655465787420213D46
:100AF000206E756C6C29207B0069662028746869FB
:100B0000732E737461747573203D3D20323030292B
:100B1000207B0069662028746869732E72656164A1
:100B2000795374617465203D3D203429207B007227
:100B30006571756573742E6F6E7265616479737417
:100B40006174656368616E6765203D2066756E63DC
:100B500074696F6E2829207B00766172207265713E
:100B600075657374203D206E657720584D4C487430
:100B700074705265717565737428293B006E6F63DC
:100B800061636865203D2022266E6F63616368653E
:100B90003D22202B204D6174682E72616E646F6D52
:100BA0002829202A20313030303030303B0068692D
:100BB00073746F72792E7265706C616365537461C2
:100BC00074652827272C2027272C2075726C2E70FF
:100BD0006174686E616D65293B00706172616D734F
:100BE0002E64656C65746528276D6F646527293BE5
:100BF0000076617220706172616D73203D207572A4
:100C00006C2E736561726368506172616D733B0035
:100C10007661722075726C203D206E65772055528A
:100C20004C2877696E646F772E6C6F636174696F9F
:100C30006E2E68726566293B0066756E6374696F17
:100C40006E204765745377697463684461746128E2
:100C500029207B003C7363726970743E003C7469A8
:100C6000746C653E42726F77736572205377697456
:100C700063682044494F3C2F7469746C653E003CA6
:100C80006D657461206E616D653D76696577706F25
:100C9000727420636F6E74656E743D7769647468F6
:100CA0003D6465766963652D77696474683E003CD0
:100CB000686561643E003C68746D6C3E003C214494
:100CC0004F43545950452068746D6C3E000000003D
:100CD00000240027002A002D003000040802011023
:100CE0004080401020408040800802040180402065
:100CF000100201108010204040200404040404036A
:100D000004050202020204030202020206060606AB
:100D100006060404020202040400C823E028112489
:100D20001FBECFEFDAE0DEBFCDBF12E0A0E0B1E042
:100D3000EAE9FAE502C005900D92AA30B107D9F7A9
:100D400022E0AAE0B2E001C01D92AD3FB207E1F798
:100D500016E0CEE8D6E004C02197FE010E94112BD8
:100D6000CD38D107C9F70E94DD240C94402D0C9496
:100D70000000FC0180913F02882311F13FB7F894F5
:100D800082E08093E9002091F200822F90E0181613
:100D9000190614F481E090E0882339F0289844E69D
:100DA00040933E024091F1004083222339F020918C
:100DB000F200211103C02BE62093E8003FBF089505
:100DC0008FEF9FEF08952FB7F89483E08093E900A9
:100DD0009091E800892F807295FF04C09091F200F5
:100DE00080E4891B2FBF08958091320281110DC0CC
:100DF00082E080932E0284E080932F0210923102D1
:100E00001092300281E0809332028EE292E00895E7
:100E100021E0FC018485883009F420E0822F0895C8
:100E2000FC01248135816217730720F48081918150
:100E3000009729F41092190289E192E00895860F33
:100E4000971F089508954091150250911602209120
:100E500013023091140242175307B4F49091E80042
:100E60009570E1F39091E80092FD19C08093F10034
:100E7000809115029091160201968F739927892B04
:100E800019F48EEF8093E80080911502909116027C
:100E90000196909316028093150281E0089580E0F8
:100EA0000895EF92FF920F931F93CF93DF93F82E45
:100EB000192FE62E042F81E0860F880F0E9423074A
:100EC00083E00E942307CF2DD12FEC0EFD2EF11CC5
:100ED000CE15DF05B9F007FF13C0FE0184910E9413
:100EE0002307182F80E00E94230781232196811178
:100EF000EFCFDF91CF911F910F91FF90EF90089569
:100F00008881EDCF81E0F5CFDF92EF92FF920F93D2
:100F10001F93CF93DF93D82E8A01EB017B01E40E60
:100F2000F51ECE15DF0559F0D7FE12C0FE018491E3
:100F30000E94230721968111F4CF0FEF1FEFC80104
:100F4000DF91CF911F910F91FF90EF90DF90089567
:100F50008881EECF0F931F93CF93DF931F92CDB76E
:100F6000DEB782E0898342E450E06CE573E080E81C
:100F70000E9484070E94F406DC0112960D911C91D8
:100F80000115110589F0D801ED91FC910280F381E2
:100F9000E02DBE016F5F7F4FC801099597FD04C02A
:100FA000F80100851185ECCF89810F90DF91CF91F9
:100FB0001F910F910895615030F02091F100FC01D4
:100FC00020830196F8CF289884E680933E02089506
:100FD000EF92FF920F931F93CF93DF938C017B01CE
:100FE000D0E0C0E0F701EC0FFD1F6491662361F0D3
:100FF000D801ED91FC910190F081E02DC801099597
:10100000892B11F02196EECFCE01DF91CF911F9168
:101010000F91FF90EF900895AF92BF92CF92DF9221
:10102000EF92FF920F931F93CF93DF936C017B019D
:101030008B01040F151FEB015E01AE18BF08C0172E
:10104000D10759F06991D601ED91FC910190F081A1
:10105000E02DC6010995892B79F7C501DF91CF9164
:101060001F910F91FF90EF90DF90CF90BF90AF90C6
:101070000895CF93DF931F92CDB7DEB76983DC016C
:10108000ED91FC910280F381E02D41E050E0BE0142
:101090006F5F7F4F09950F90DF91CF91089583E0A7
:1010A0008093E9008091F200882319F08AE380930D
:1010B000E80008950E94E30690E00895CF93DF933F
:1010C0001F92CDB7DEB7FC018485958597FD08C0DA
:1010D0002FEF3FEF358724870F90DF91CF91089551
:1010E000CE0101960E94B906019719F4898190E01A
:1010F000F3CF8FEF9FEFF0CF0F931F93CF93DF933B
:101100001F92CDB7DEB78C01FC018485958597FFD2
:101110000BC0CE0101960E94B906019771F4898136
:1011200090E0F80195878487F801848595850F9074
:10113000DF91CF911F910F9108958FEF9FEFF1CF26
:10114000FC018485958597FD0BC09FB7F89482E0DC
:101150008093E9008091F2009FBF90E0019608958E
:101160009FB7F89482E08093E9008091F2009FBFDE
:1011700090E0089581508F3008F047C0E82FF0E0EC
:10118000EC53F74F0C94112BE108E508D308D9086C
:10119000DD08050905090509E808EE08F208F60862
:1011A000FC0805090009809180008F7780938000FA
:1011B0000895809180008F7DF9CF80918000877F96
:1011C000F5CF84B58F7784BD089584B58F7DFBCF2F
:1011D000809190008F778093900008958091900087
:1011E0008F7DF9CF80919000877FF5CF8091C000EF
:1011F0008F778093C00008958091C0008F7DF9CFD4
:101200008091C200877F8093C2000895CF93DF93BF
:10121000282F30E0F901E35CFC4F8491F901E5529D
:10122000F34FD491F901E650F34FC491CC23A1F0D0
:1012300081110E94BA08EC2FF0E0EE0FFF1FE15D74
:10124000FC4FA591B491EC91ED2381E090E009F47D
:1012500080E0DF91CF91089580E090E0FACF1F9376
:10126000CF93DF93282F30E0F901E35CFC4F8491AA
:10127000F901E552F34FD491F901E650F34FC491CF
:10128000CC23A9F0162F81110E94BA08EC2FF0E0B0
:10129000EE0FFF1FEF5DFC4FA591B4918FB7F8944F
:1012A000EC91111108C0D095DE23DC938FBFDF9144
:1012B000CF911F910895DE2BF8CFCF93DF9390E06D
:1012C000FC01E552F34F24918650934FFC01849129
:1012D0008823D1F090E0880F991FFC01E353F34F6E
:1012E000A591B491FC01EF5DFC4FC591D4916111C2
:1012F0000EC09FB7F8948C91E22FE0958E238C93CB
:101300002881E223E8839FBFDF91CF9108958FB7B3
:10131000F894EC91E22BEC938FBFF6CF3FB7F894A3
:1013200080910F0290911002A0911102B0911202CF
:1013300026B5A89B05C02F3F19F00196A11DB11D30
:101340003FBFBA2FA92F982F8827BC01CD01620F6C
:10135000711D811D911D42E0660F771F881F991F27
:101360004A95D1F708958F929F92AF92BF92CF92F4
:10137000DF92EF92FF924B015C010E948E096B019C
:101380007C010E948E096C197D098E099F09683EB7
:10139000734081059105A8F321E0821A9108A10804
:1013A000B10888EEC80E83E0D81EE11CF11C811440
:1013B0009104A104B10429F7FF90EF90DF90CF9042
:1013C000BF90AF909F908F9008958F929F92AF9211
:1013D000BF92CF92DF92EF92FF920F931F93CF9322
:1013E000DF936C017B018A0180910D01882309F450
:1013F0005CC080913F02882309F457C080911A0293
:1014000080FF05C08091E00082608093E000E801E9
:10141000B12C8AEFA82E93E0892E2AE3922E2097F2
:1014200011F4BB20D9F10E94E30681110AC0AA94ED
:10143000AA20D9F161E070E080E090E00E94B30959
:10144000EECF8C171D0611F00CF08C2F9FB7F8947F
:101450008092E9002091E80025FD02C09FBFDFCF08
:10146000282F30E0C21BD30BF701815020F04191AF
:101470004093F100FACFE20EF31EBB2021F09092D0
:10148000E800B12CEBCF8091E80085FDE7CF90928A
:10149000E800BB24B394209709F3F3CF5D9884E66A
:1014A00080931802101611063CF081E090E0F601DE
:1014B0009383828310E000E0C801DF91CF911F91F8
:1014C0000F91FF90EF90DF90CF90BF90AF909F90E3
:1014D0008F9008952FB7F89460910B0270910C02D1
:1014E00080910D0290910E022FBF08950F931F93CC
:1014F0000E946A0A609348027093490280934A02EC
:1015000090934B0280E492E00E945E0897FF1DC01A
:101510000E946A0A009148021091490220914A02F1
:1015200030914B02601B710B820B930B00914402B4
:1015300010914502209146023091470260177107D1
:1015400082079307F8F28FEF9FEF1F910F91089595
:1015500061E080913B020C942F0960E080913B0296
:101560000C942F0908958EBD00000DB407FEFDCF29
:101570008EB508958CBD9DBD0895CF93DF93D82F70
:10158000C62F80919002909191020E94BA0A0E9407
:10159000AD0A80E00E94B30A8D2F0E94B30A8C2FFF
:1015A0000E94B30A80E00E94B30AC82F0E94A80AD2
:1015B0008C2FDF91CF910895DF92EF92FF920F93DE
:1015C0001F93CF93DF93D82FD92EC62F7A0189018D
:1015D00080919002909191020E94BA0A0E94AD0AF5
:1015E0008D2D0E94B30A8D2F0E94B30A8C2F0E946A
:1015F000B30AE701E00EF11ECE15DF0521F0899157
:101600000E94B30AF9CF0E94A80AC801DF91CF91C6
:101610001F910F91FF90EF90DF9008951F93CF934C
:10162000DF93182FD62FC42F8091900290919102B2
:101630000E94BA0A0E94AD0A80E00E94B30A812F7C
:101640000E94B30A8D2F0E94B30A8C2F0E94B30A06
:101650000E94A80A81E0DF91CF911F9108958F9297
:101660009F92BF92CF92DF92EF92FF920F931F93C0
:10167000CF93DF937C016B018A01E901B090B60240
:10168000B0923B0268EE73E080E090E00E94B30904
:1016900061E08B2D0E945D09BFB6F89480913A02FB
:1016A000811127C0EBE0FDE08491ECEEFCE0949129
:1016B000E82FF0E0EE0FFF1FE353F34FA591B49135
:1016C000EC91E92321F461E081E10E942F0961E0BE
:1016D00081E10E945D098CB580618CBD8CB5806410
:1016E0008CBD61E08FE00E945D0961E080E10E94B5
:1016F0005D0980913A028F5F80933A02BFBE60E03D
:1017000090E080E00E94BD0A482F406864E090E0CD
:1017100080E00E940E0B8CE0B82E98E0892E912C70
:1017200042E06B2D8EE190E00E940E0B42E06B2DAB
:101730008FE190E00E940E0B81E0881A9108E0E2B0
:10174000BE0E8114910461F726E030E04BEE52E0CA
:1017500064E089E090E00E94DC0AA7014E5F5F4FE1
:1017600024E030E064E08FE090E00E94DC0AA80111
:101770004E5F5F4F24E030E064E081E090E00E9443
:10178000DC0AAE014E5F5F4F24E030E064E085E0AC
:1017900090E00E94DC0AF60182819381A481B581E8
:1017A0008093AC029093AD02A093AE02B093AF02CF
:1017B000DF91CF911F910F91FF90EF90DF90CF902D
:1017C000BF909F908F9008959B018295880F807E97
:1017D0006CE0680FC9010C940E0BCF93DF93EC0102
:1017E000898D9A8D892B41F0E881F9810284F385F6
:1017F000E02DCE010995F4CFDF91CF910895CF93DD
:10180000DF931F92CDB7DEB76983DC01ED91FC91C8
:101810000280F381E02D41E050E0BE016F5F7F4F19
:1018200009950F90DF91CF9108951F93CF93DF9388
:10183000FB01DC0158961C921E92579722812111C0
:1018400009C02381211106C02481211103C02581F3
:10185000222339F14115510521F1EA01DC011C96E1
:101860001C91AF014E5F5F4F612F6295660F607EE6
:10187000645F24E030E08CE090E00E94DC0A4D2FB1
:1018800060E170E0812F0E94E40B4C2F61E170E079
:10189000812F0E94E40B81E090E0DF91CF911F91B6
:1018A000089590E080E0F9CFFC01818D928D08953C
:1018B000FC0185899689089529E831E0FC0131838E
:1018C0002083FB014189528963897489FC01428329
:1018D000538364837583089580E00895CF93DF93E5
:1018E0001F92CDB7DEB76983DC01ED91FC910280D8
:1018F000F381E02D41E050E0BE016F5F7F4F09951D
:101900000F90DF91CF910895FC019485FB018485B0
:10191000981303C081E0983009F480E00895089599
:10192000CF93DF931F92CDB7DEB76983DC01ED91D2
:10193000FC910280F381E02D41E050E0BE016F5F39
:101940007F4F09950F90DF91CF9108959B0182956C
:10195000880F807E68E0680FC9010C94BD0ACF93A0
:10196000C82F462F61E070E00E94E40B61E070E058
:101970008C2F0E94A60C8111F9CFCF910895CF939F
:10198000C82F60E170E00E94AF0C4FEF62E070E0A2
:101990008C2FCF910C94E40B0F931F93CF93DF9375
:1019A000C82FD62F8A010E94BF0C4D2F70E060E037
:1019B0008C2F0E94E40B01151105B9F0412F64E052
:1019C00070E08C2F0E94E40B402F65E070E08C2FBC
:1019D0000E94E40B61E070E08C2F0E94AF0C81E06C
:1019E000DF91CF911F910F91089500913C021091CA
:1019F0003D020F5F1F4F10933D0200933C02DECF6C
:101A0000CF93DF93EC018C85883061F00E94BF0C8E
:101A1000EC85F0E0EE0FFF1FE45EFD4F11821082B7
:101A200088E08C87DF91CF910895AF92BF92CF92DB
:101A3000DF92EF92FF920F931F93CF93DF93F82ED5
:101A40005B016A01E22E68E270E00E94A60C082F9A
:101A500010E0102F002769E270E08F2D0E94A60C85
:101A6000E801C80FD11D80919002909191020E94CF
:101A7000BA0A0E94AD0A8D2F0E94B30A8C2F0E94D1
:101A8000B30A8F2D8295880F807E885E0E94B30AEC
:101A90008501AC0CBD1C80E00E94B30AF801819363
:101AA0008F01EA15FB05B9F70E94A80AE11018C0DA
:101AB000CC0DDD1D4D2F68E270E08F2D0E94E40BF0
:101AC0004C2F69E270E08F2DDF91CF911F910F9124
:101AD000FF90EF90DF90CF90BF90AF900C94E40B0D
:101AE000DF91CF911F910F91FF90EF90DF90CF90FA
:101AF000BF90AF9008950F931F93CF93DF931F92E2
:101B0000CDB7DEB78C01DC01ED91FC910084F1854D
:101B1000E02D0995892B91F021E041E050E0BE01D4
:101B20006F5F7F4FF80184850E94150D898190E0D9
:101B30000F90DF91CF911F910F9108958FEF9FEF3D
:101B4000F7CFCF93DF931F92CDB7DEB7FC01218D86
:101B5000328D8FEF9FEF232B59F021E041E050E0D1
:101B6000BE016F5F7F4F84850E94150D898190E0D3
:101B70000F90DF91CF910895BF92CF92DF92EF92B5
:101B8000FF920F931F93CF93DF93B82E6B017A01CF
:101B9000890164E270E00E94A60CC82F65E270E043
:101BA0008B2D0E94A60CD0E0DC2FCC278C0D9D2D18
:101BB000911DC80FD91F6B2D6295660F607E6C5EFC
:101BC0009801A701CE010E94DC0AC00FD11F4D2F42
:101BD00064E270E08B2D0E94E40B4C2F65E270E014
:101BE0008B2DDF91CF911F910F91FF90EF90DF90A0
:101BF000CF90BF900C94E40B1F93CF93DF93182FDB
:101C000066E270E00E94A60CC82FD0E0DC2FCC2743
:101C100067E270E0812F0E94A60C8C0F9D2F911D12
:101C2000DF91CF911F910895FF920F931F93CF9350
:101C3000DF93F82E10E000E08F2D0E94FC0DEC01E8
:101C4000892B21F08F2D0E94FC0D8C01C017D1072C
:101C500099F7CE01DF91CF911F910F91FF900895D9
:101C6000FC018485883011F00C94140E90E080E023
:101C700008951F93CF93DF93182F60E270E00E94C6
:101C8000A60CC82FD0E0DC2FCC2761E270E0812FBA
:101C90000E94A60C8C0F9D2F911DDF91CF911F915B
:101CA0000895FF920F931F93CF93DF93F82E10E0C8
:101CB00000E08F2D0E94390EEC01892B21F08F2D31
:101CC0000E94390E8C01C017D10799F7CE01DF9120
:101CD000CF911F910F91FF900895AF92BF92CF9235
:101CE000DF92FF920F931F93CF93DF938C015B01E1
:101CF000EA01FC01C788D08CF4848F2D0E94510E1C
:101D00008C179D0720F48F2D0E94510EEC019E012F
:101D1000A501B6018F2D0E94BC0DF8018789908D19
:101D20008C0F9D1F908F878BCE01DF91CF911F91DC
:101D30000F91FF90DF90CF90BF90AF900895FC017E
:101D40008485883021F063E070E00C94A60C80E07C
:101D50000895CF93DF93FC0124852830D9F0EC015E
:101D60000E949F0E843189F0882379F0883169F0D0
:101D700021E08C3159F4E881F9810084F185E02D6E
:101D8000CE01099521E0892B09F420E0822FDF9113
:101D9000CF91089580E0FBCFCF92DF92EF92FF9238
:101DA000CF93DF93EC018C85883089F168E070E097
:101DB0000E94AF0C0E946A0A6B017C01CE010E9456
:101DC0009F0E882391F00E946A0A6C197D098E0982
:101DD0009F09683E73408105910538F461E070E029
:101DE00080E090E00E94B309E9CFCE010E949F0EEF
:101DF000882319F08C850E94BF0CEC85F0E0EE0F73
:101E0000FF1FE45EFD4F1182108288E08C87DF9116
:101E1000CF91FF90EF90DF90CF9008954F925F9217
:101E20006F927F928F929F92AF92BF92CF92DF92EA
:101E3000EF92FF921F93CF93DF93CDB7DEB72D972D
:101E40000FB6F894DEBF0FBECDBF7C019CE1A92E7A
:101E500092E0B92E10E0D12CC12C28EE422E23E0C6
:101E6000522E612C712C37E4832E31E0932E1C828C
:101E70001B824D825E826F8278869A8289821D875C
:101E8000D5012D913D915D01F70184819581281740
:101E90003907B1F4CE0101960E949F0E843199F169
:101EA000CE0101960E949F0E8C3151F4CE01019615
:101EB0000E94300E892B21F4CE0101960E94CC0E97
:101EC0001F5F1830A1F6CD2841F4D701ED91FC91A8
:101ED0000084F185E02DC70109952D960FB6F89481
:101EE000DEBF0FBECDBFDF91CF911F91FF90EF906E
:101EF000DF90CF90BF90AF909F908F907F906F902A
:101F00005F904F900895CC24C394D12CD9CFCF9219
:101F1000DF92EF92FF921F93CF93DF93182F6B0105
:101F20007A010E94140EEC010097D9F463E070E08E
:101F3000812F0E94A60C843159F0882349F0C1E01A
:101F4000D0E08C3111F4D0E0C0E0D195C195D10939
:101F5000CE01DF91CF911F91FF90EF90DF90CF9056
:101F60000895E816F9060CF4E7011C161D0684F71F
:101F700020E0AE01B601812F0E94150D60E470E0F3
:101F8000812F0E94AF0CE4CFCF93DF93FC01218D12
:101F9000328D2115310529F48FEF9FEFDF91CF911D
:101FA0000895EC0184854217530708F0A9010E94A7
:101FB000870F1816190684F7298D3A8D281B390BBF
:101FC0003A8F298FEBCF0F931F93CF93DF931F92FD
:101FD000CDB7DEB7FC01218D328D232B41F48FEF7D
:101FE0009FEF0F90DF91CF911F910F9108958C017A
:101FF00041E050E0BE016F5F7F4FFC0184850E948D
:10200000870F181619065CF7F801818D928D0197DC
:10201000928F818F898190E0E4CFFC0184850C94BC
:10202000870FCF93DF931F92CDB7DEB741E050E02B
:10203000BE016F5F7F4FFC0184850E94870F1816D9
:10204000190634F4898190E00F90DF91CF910895C3
:102050008FEF9FEFF9CFCF93FC01C48560E270E072
:102060008C2F0E94AF0C62E070E08C2F0E94A60CB7
:1020700084FD11C062E070E08C2F0E94A60C83FFEB
:10208000F2CF48E162E070E08C2F0E94E40B90E018
:1020900080E0CF91089540E162E070E08C2F0E94D3
:1020A000E40B81E090E0F5CFEF92FF921F93CF9386
:1020B000DF93FC012485283039F080E0DF91CF9157
:1020C0001F91FF90EF9008957B01EC0110E063E019
:1020D00070E0812F0E94A60C81110EC01C878C8598
:1020E000883059F3FE86ED861A8E198EA70162E0BC
:1020F0000E94CC0C81E0E2CF883181F31F5F183061
:1021000031F7EDCF8F929F92AF92BF92CF92DF9235
:10211000EF92FF920F931F93CF93DF93CDB7DEB76C
:102120002D970FB6F894DEBF0FBECDBF7C0110E037
:1021300000E038EE832E33E0932EA12CB12C47E43F
:10214000C42E41E0D42E1C821B828D829E82AF82DF
:10215000B886DA82C9820D87CE0101960E949F0E51
:10216000811130C0F7014481558161E0802F0E94C8
:10217000CC0C63E070E0802F0E94A60C833129F420
:1021800062E070E0802F0E94AF0CF701848195819E
:10219000000F111FF801E45EFD4F918380832D969F
:1021A0000FB6F894DEBF0FBECDBFDF91CF911F9168
:1021B0000F91FF90EF90DF90CF90BF90AF909F90E6
:1021C0008F9008950F5F1F4F0830110509F0BBCFA6
:1021D000E6CF8F929F92AF92BF92CF92DF92EF9213
:1021E000FF920F931F93CF936C015B017A01FC0167
:1021F000C485C830A1F481E090E0F6019383828326
:10220000F12CE12CC701CF911F910F91FF90EF901E
:10221000DF90CF90BF90AF909F908F9008958A01EC
:102220004130584010F000E018E08C2F0E94510E11
:102230004C0163E070E08C2F0E94A60C873111F0F6
:102240008C3109F58016910680F39801A50170E0A4
:1022500060E08C2F0E94BC0D60E270E08C2F0E9429
:10226000AF0C62E070E08C2F0E94A60C84FD0EC0C3
:1022700063E070E08C2F0E94A60C8111F2CF8C2FAE
:102280000E94BF0CB8CF10E000E0DFCF40E162E079
:1022900070E08C2F0E94E40B012B09F0B3CFABCF81
:1022A0003F924F925F926F927F928F929F92AF92E6
:1022B000BF92CF92DF92EF92FF920F931F93CF9333
:1022C000DF93CDB7DEB72D970FB6F894DEBF0FBE04
:1022D000CDBF6C015B014A010E940E0F8CE1E82E1C
:1022E00082E0F82E312C10E000E098EE492E93E0C9
:1022F000592E612C712C1C821B824D825E826F8252
:10230000788687E491E09A8389833D86F70121915D
:1023100031917F01F601848195812817390771F485
:10232000CE0101960E949F0E873141F4A401B501B0
:10233000CE0101960E94E910080F191F3394F8E0AE
:102340003F12D9CFC8012D960FB6F894DEBF0FBE4D
:10235000CDBFDF91CF911F910F91FF90EF90DF9054
:10236000CF90BF90AF909F908F907F906F905F9035
:102370004F903F900895DF92EF92FF920F931F933B
:10238000CF93DF93FC012485283051F090E080E06A
:10239000DF91CF911F910F91FF90EF90DF90089503
:1023A0007A01EB018C01D12C63E070E08D2D0E944D
:1023B000A60C811128C0F801D486F80184858830E4
:1023C00029F320910001309101012F5F3F4F19F156
:1023D00030930101209300014091000150910101CF
:1023E00061E00E94CC0C8A818F3FC1F48B818F3FCA
:1023F00001F58C818F3FE9F48D818F3FD1F488E026
:10240000F8018487C3CF8B7F8831A9F2D394F8E099
:10241000DF12CACFD2CF20E034E0DACF811109C079
:102420008B81811106C08C81811103C08D8188232D
:1024300031F3E114F10419F3F801D484AE014E5FD5
:102440005F4F6D2D6295660F607E645F24E030E023
:102450008CE090E00E94DC0A4F2D60E170E08D2D51
:102460000E94E40B4E2D61E170E08D2D0E94E40B83
:1024700064E070E08D2D0E94AF0CC8010E949F0E99
:10248000873161F061E070E080E090E00E94B30984
:10249000C8010E949F0E8111F0CFB1CF81E090E082
:1024A00077CFDC01ED91FC91048CF58DE02D099442
:1024B000DC01ED91FC91028CF38DE02D099591E00A
:1024C0008927089590E080E008950C94782A0F936E
:1024D0001F93CF93DF93FC01048115810115110532
:1024E00039F4FB011082DF91CF911F910F91089574
:1024F0000430110510F004E010E0EB01FC016081F4
:102500007181A801CE010E94172DC00FD11F188222
:10251000EACFCF93DF932091CD023091CE02232BCF
:1025200089F0FC01C091C902D091CA026081718119
:10253000CE010E94262D009729F08C1B9D0BDF9168
:10254000CF9108958FEF9FEFFACF0F931F93CF9303
:10255000DF93CDB7DEB728970FB6F894DEBF0FBE76
:10256000CDBF8C01DC01ED91FC910680F781E02D5F
:102570000995F80184850E94140E892BB1F148E079
:1025800050E0BE016F5F7F4FD8011C968C910E9476
:10259000870F18161906F4F4D801519684E0FE014D
:1025A000319601900D928A95E1F78D8190E0982FF8
:1025B00088272E81820F911DF801968B858B8F8144
:1025C000282F30E0322F22278885820F932F911DEC
:1025D000928F818F28960FB6F894DEBF0FBECDBFC5
:1025E000DF91CF911F910F91089590E080E0F2CF9D
:1025F0004F925F926F927F928F929F92AF92BF9213
:10260000CF92DF92EF92FF920F931F93CF93DF93BE
:10261000CDB7DEB763970FB6F894DEBF0FBECDBF60
:102620007C016B013A01FB01DB018D918111FDCF32
:1026300030E020E090E080E05AE04191442301F155
:10264000843091050CF042C04E3269F42F3F3105C1
:1026500009F0E4F5D301A80FB91F12962C93019647
:1026600030E020E0EACF529FB001539F700D11245B
:10267000242F440F330B20533109260F371FDDCF92
:102680002F3F310509F014F584309105FCF4680EF4
:10269000791EF3012283CC24C394D12CC601639606
:1026A0000FB6F894DEBF0FBECDBFDF91CF911F9163
:1026B0000F91FF90EF90DF90CF90BF90AF909F90E1
:1026C0008F907F906F905F904F900895F7014281B7
:1026D0005381648175818091BF029091C002A09165
:1026E000C102B091C202481759076A077B0709F473
:1026F00000C28701085F1F4F0E946A0A6F70772728
:102700007C5FC8010E945410813009F0F7C189E84C
:1027100091E09A838983F70182819381A481B581B5
:102720008B839C83AD83BE8345E350E0BE016F5F26
:102730007F4FC8010E94150C892B31F4D12CC12C7C
:10274000C8010E94000DAACF0E946A0AF701778390
:10275000668342E050E0B7016A5F7F4FC8010E9484
:102760006D0E81E090E09A83898342E050E0BE01E3
:102770006F5F7F4FC8010E946D0E80E091E09A83E9
:10278000898342E050E0BE016F5F7F4FC8010E9425
:102790006D0E1A82198242E050E0BE016F5F7F4FDA
:1027A000C8010E946D0E42E050E0BE016F5F7F4F96
:1027B000C8010E946D0E42E050E0BE016F5F7F4F86
:1027C000C8010E946D0E5601F6018081882301F137
:1027D0006501F60181912F01882311F08E32B1F449
:1027E00046018A189B081814190474F48D8641E078
:1027F00050E0BE01635F7F4FC8010E946D0EA401CF
:10280000B501C8010E946D0E5201DECF6201E1CF19
:102810001D8641E050E0BE01635F7F4FC8010E940A
:102820006D0EC12CDD24D394DA82C98242E050E0DF
:10283000BE016F5F7F4FC8010E946D0EDA82C982B0
:1028400042E050E0BE016F5F7F4FC8010E946D0EF5
:10285000C8010E942B10892B09F470CFF3E0AF2E32
:10286000B12C230122E0420E511C43C0F7014281EA
:10287000538164817581818D928DA38DB48D4817AC
:1028800059076A077B0709F02AC1858D968DC59780
:1028900009F025C181A192A10C970CF425C14CE04F
:1028A00050E0BE016F5F7F4FC8010E94C40F8B8153
:1028B0009C819827892798279A8B898BF7014681D5
:1028C000578129813A814217530711F497FD2FC090
:1028D000C8010E94ED0BECEFCE2EDD24DA9481E0EE
:1028E000A81AB10809F42CCFFFEFCF16DF0609F0C4
:1028F00027CF0E946A0A3B014C01C8010E94A51221
:10290000181619060CF4B2CF0E946A0A66197709E4
:1029100088099909693873418105910508F0DBC080
:1029200062E370E080E090E00E94B309E6CF8F7030
:102930009270892B41F0C8010E94ED0B7BEFC72EEE
:10294000DD24DA94CCCF6F807884762467247624D3
:10295000D12CC12C61147104D1F4C8010E94ED0B7B
:102960006AEFC62EDD24DA94BACF8D85811117C0A7
:10297000C8010E94E30FC8010E94E30FC8010E9432
:10298000E30FC8010E94E30FFFEFCF1ADF0A8D812A
:102990009E81982789279827C816D906A8F441E070
:1029A00050E0BE01635F7F4FC8010E94C40F8D8558
:1029B0008823D9F28D859FEF980F9D878823A9F2F0
:1029C000C8010E94E30FF6CF912C812C41E050E02A
:1029D000BE016D5E7F4FC8010E94C40F8B89982F86
:1029E000907C61F4882389F08B899FEF980F9B8BF3
:1029F000882341F0C8010E94E30FF6CFC8010E946E
:102A0000E30F1B8A8B898111E1CF42E050E0BE01C8
:102A1000615F7F4FC8010E94C40F42E050E0BE01D9
:102A2000635F7F4FC8010E94C40FC8010E94E30F7B
:102A3000C8010E94E30FC8010E94E30FC8010E9471
:102A4000E30F42E050E0BE016F5E7F4FC8010E947D
:102A5000C40F8F85988981159140E9F4CD84DE8477
:102A6000DC24CD24DC2481E0C816D104A1F48989BA
:102A70009A898115944041F0C8010E94ED0B57EFEF
:102A8000C52EDD24DA942BCF44E050E0B201C8011A
:102A90000E94C40F24CFD12CC12C89899A899827F0
:102AA00089279827C816D90638F4C8010E94E30F71
:102AB000FFEFCF1ADF0AF1CF2FEF821A920A6814C4
:102AC000790409F083CFC8010E94ED0B46EFC42EB4
:102AD000DD24DA9404CFCC24CA94DC2C00CF2EEF72
:102AE000C22EDD24DA94FBCE9DEFC92EDD24DA94CC
:102AF000F6CE8EEFC82EDD24DA94D0CDD12CC12CA9
:102B0000CDCDCF92DF92EF92FF920F931F93CF9391
:102B1000DF93CDB7DEB7AF970FB6F894DEBF0FBE29
:102B2000CDBF7C016A0109E811E01A8309831C8684
:102B30001B8688EE93E0A0E0B0E08D879E87AF878C
:102B4000B88B88E191E09A87898788E08D8B198F0F
:102B5000088F1A8E1B8E1C8E1D8E1BA70AA71CA603
:102B60001DA61EA61FA68091AC029091AD02A09159
:102B7000AE02B091AF028EA39FA3A8A7B9A78B8383
:102B80009C83AD83BE8318861F82AE01465D5F4F76
:102B9000CE0101960E94F81281309105B1F4D7015F
:102BA000ED91FC910488F589E02D1DA30CA38CA563
:102BB0009DA5AEA5BFA58EA39FA3A8A7B9A7A60153
:102BC000BE016C5D7F4FC7010995AF960FB6F894B3
:102BD000DEBF0FBECDBFDF91CF911F910F91FF9050
:102BE000EF90DF90CF900895CF92DF92EF92FF9217
:102BF0000F931F93CF93DF93CDB7DEB7AF970FB689
:102C0000F894DEBF0FBECDBF7C016A0109E811E078
:102C10001A8309831C861B8688EE93E0A0E0B0E04F
:102C20008D879E87AF87B88B88E191E09A878987E7
:102C300088E08D8B198F088F1A8E1B8E1C8E1D8E2F
:102C40001BA70AA71CA61DA61EA61FA68091AC0244
:102C50009091AD02A091AE02B091AF028EA39FA35E
:102C6000A8A7B9A78B839C83AD83BE8318861F82D8
:102C7000AE01465D5F4FCE0101960E94F812813091
:102C80009105B1F4D701ED91FC910684F785E02D13
:102C90001DA30CA38CA59DA5AEA5BFA58EA39FA328
:102CA000A8A7B9A7A601BE016C5D7F4FC701099512
:102CB000AF960FB6F894DEBF0FBECDBFDF91CF91B8
:102CC0001F910F91FF90EF90DF90CF9008950E9499
:102CD000F92CFB0101900020E9F73197AF01461B69
:102CE000570BDC01ED91FC910280F381E02D0994FA
:102CF0004F925F926F927F92EF92FF920F931F938A
:102D0000CF93DF93CDB7DEB7A1970FB6F894DEBFB0
:102D10000FBECDBF7C0170E090E080E019A28E0173
:102D20000F5D1F4F2A01550F66087708A301920116
:102D30000E949E2AE62FCA01B901EA300CF5E05D37
:102D4000D801EE938D01232B242B252B79F790E0CE
:102D500080E0109721F0C701BD010E946916A1967D
:102D60000FB6F894DEBF0FBECDBFDF91CF911F919C
:102D70000F91FF90EF907F906F905F904F9008952C
:102D8000E95CDECF8F929F92AF92BF92CF92DF929B
:102D9000EF92FF920F931F93CF93DF937C01EB0190
:102DA0006C0182E0C80ED11C4701E5E08E0E911C3B
:102DB00010E000E0F60161916F014AE050E0CE01C1
:102DC0000E9478165C01E881F9810190F081E02D84
:102DD0006EE2CE0109958A0D9B1D080F191FC814BC
:102DE000D90441F74AE050E0F7016581CE010E9425
:102DF0007816800F911FDF91CF911F910F91FF9057
:102E0000EF90DF90CF90BF90AF909F908F900895FC
:102E1000BC0180E492E00C9469166BE871E00C94BC
:102E20006916CF93DF93FC014481558160817181E4
:102E300080E492E00E94E509EC0180E492E00E94C7
:102E40000D178C0F9D1FDF91CF9108950F931F9346
:102E5000CF93DF93EC010E9469168C01CE010E9492
:102E60000D17800F911FDF91CF911F910F91089542
:102E70000F931F93CF93DF93EC010E94E8078C011F
:102E8000CE010E940D17800F911FDF91CF911F91EE
:102E90000F9108950F931F93CF93DF938C01EB0154
:102EA000FC01808191810097E1F068817981611551
:102EB0007105A9F0428153812C813D81421753074E
:102EC00070F00E94102D8C819D81F8019583848380
:102ED0001D821C82DF91CF911F910F9108950E9456
:102EE000B32B88819981F801918380838A819B81AA
:102EF000938382838C819D81958384831982188238
:102F00001B821A82E5CFFC0180819181009711F02C
:102F10000C94B32B0895FC0180819181009711F0EE
:102F20000C94FB2960E070E0CB010895AF92BF9252
:102F3000CF92DF92EF92FF920F931F93CF93DF9385
:102F4000DC01CD90DC901197C114D10439F01496B6
:102F5000CD91DC918C017601209761F4DF91CF91C6
:102F60001F910F91FF90EF90DF90CF90BF90AF90A7
:102F7000089575015701BFEFAB1ABB0AF7018081B5
:102F8000082E000C990B0E94222A892B91F7219779
:102F9000CC0DDD1D8881082E000C990B0E94222A81
:102FA000892B29F0CE15DF0510F02197F3CFAE0164
:102FB0004F5F5F4F4E195F09D80115965C934E9392
:102FC0001497CE14DF0420F4B701C6010E94FE2C32
:102FD000D801ED91FC91119714968D919C91E80F79
:102FE000F91F1082BBCFFC0124813581232B39F4DA
:102FF00021E0FB018081882349F020E007C0808127
:1030000091810E94072D21E0892BB9F7822F089525
:103010000F931F93CF93DF93EC01888199810097E1
:1030200059F02A813B812617370730F081E0DF9184
:10303000CF911F910F9108958B016F5F7F4F0E9479
:103040003C2C009759F0998388831B830A832C8139
:103050003D81232B59F7FC011082E8CF80E0E7CFB8
:10306000EF92FF920F931F93CF93DF93EC017B01BD
:10307000198218821B821A821D821C82FB01019018
:103080000020E9F731978F01061B170BB8010E944A
:10309000081828813981811113C02115310519F0D3
:1030A000C9010E94B32B198218821D821C821B82C7
:1030B0001A82DF91CF911F910F91FF90EF900895A9
:1030C0001D830C83B701C901DF91CF911F910F912F
:1030D000FF90EF900C94102DEF92FF920F931F939F
:1030E000CF93DF93EC017B01FB0101900020E9F716
:1030F00031978F01061B170BB8010E940818288111
:103100003981811113C02115310519F0C9010E94BF
:10311000B32B198218821D821C821B821A82DF91B6
:10312000CF911F910F91FF90EF9008951D830C8315
:10313000B701C901DF91CF911F910F91FF90EF90DF
:103140000C94102DEF92FF920F931F93CF93DF9368
:1031500000D0CDB7DEB78C0169831A82FC01E48010
:10316000F580FFEFEF1AFF0AB7010E9408188823C5
:1031700081F0F8012081318184819581BE016F5FEA
:103180007F4F820F931F0E94102DF801F582E48279
:1031900081E00F900F90DF91CF911F910F91FF90E1
:1031A000EF900895CF93DF93EC016DE871E00E94FA
:1031B00030180E94760A97FD08C08A30910529F0E0
:1031C000682FCE010E94A218F4CFCE01DF91CF91DB
:1031D00008958F929F92AF92BF92CF92DF92EF921B
:1031E000FF920F931F93CF93DF93CDB7DEB76E9708
:1031F0000FB6F894DEBF0FBECDBF80E492E00E9410
:103200005E08019609F40EC36DE871E0CE0149969F
:103210000E94301880E492E00E945E081C8A1B8A9B
:103220001E8A1D8A188E1F8A4AE0BE016F5F7F4F7B
:103230000E942B2ABE016F5F7F4FCE0143960E94F2
:103240006C18BE016D5E7F4FCE0149960E944A17F1
:10325000CE0143960E9483176DE871E0CE01499636
:103260000E946C1880E492E00E940D176BE073E0FE
:1032700080E492E00E94381767EF72E080E492E009
:103280000E9438176FEE72E080E492E00E943817D7
:103290006FED72E080E492E00E9438176AED72E010
:1032A00080E492E00E94E80710E000E0C8010E947C
:1032B000782A813120F48EE891E00E940817C80135
:1032C0000E94651240E150E0682F80E492E00E9485
:1032D00078160530110521F080E991E00E94081769
:1032E0000F5F1F4F0630110509F780E492E00E943E
:1032F0000D1766ED72E080E492E00E94E80736E088
:10330000A32EB12CC5010E9465124AE050E0682F3F
:1033100080E492E00E94781689E0A816B10421F0BA
:1033200082E991E00E940817EFEFAE1ABE0AFAE0B8
:10333000AF16B10439F780E492E00E940D176EECED
:1033400072E080E492E00E94E8072AE0C22ED12CCD
:10335000C6010E9465124AE050E0682F80E492E0C6
:103360000E9478162DE0C216D10421F082E991E086
:103370000E9408178FEFC81AD80AEEE0CE16D104C3
:1033800039F780E492E00E940D1765EC72E080E46A
:1033900092E00E94E8079EE0E92EF12CC7010E940E
:1033A00065124AE050E0682F80E492E00E947816AF
:1033B000F1E1EF16F10421F082E991E00E94081793
:1033C0002FEFE21AF20A82E1E816F10439F780E4FD
:1033D00092E00E940D176AEB72E080E492E00E9496
:1033E000E80782E1882E912CC4010E9465124AE010
:1033F00050E0682F80E492E00E947816E5E18E1696
:10340000910421F082E991E00E940817FFEF8F1AE2
:103410009F0A26E18216910439F780E492E00E9427
:103420000D1765EB72E080E492E00E9438176FEAB6
:1034300072E080E492E00E9438176AEA72E080E469
:1034400092E00E94381761EA72E080E492E00E9404
:10345000381767E972E080E492E00E9438176BE861
:1034600072E080E492E00E94381764E872E080E441
:1034700092E00E94381780E492E00E94A008892B15
:10348000D1F3CE0101960E94D218BE016F5F7F4F2B
:10349000CE0149960E944A17CE0101960E948317D9
:1034A000CE0149960E94961761E872E080E492E0AE
:1034B0000E94E807CE0149960E94111764E971E065
:1034C000CE0149960E94F317882309F4BEC16FE428
:1034D00072E080E492E00E9438176CE472E080E4CD
:1034E00092E00E94381780E492E00E94A008892BA5
:1034F000D1F3CE0101960E94D218BE016F5F7F4FBB
:10350000CE0149960E944A17CE0101960E94831768
:10351000CE0149960E94961769E472E080E492E039
:103520000E94E807CE0149960E9411178D8D9E8D4D
:1035300063E372E00C9709F03BC661E472E080E45B
:1035400092E00E9438176DE871E0CE0101960E946A
:10355000301866E971E0CE0101960E946C1870E0A7
:1035600060E0CE0149960E941007FC016081CE0107
:1035700001960E94A21861E070E0CE0149960E9477
:103580001007FC016081CE0101960E94A218BE01C5
:103590006D5E7F4FCE0101960E94671240E150E0C0
:1035A00070E060E0CE0143960E94E42890E080E065
:1035B0000E94802A66E971E0CE0101960E946C1893
:1035C00062E070E0CE0149960E941007FC01608124
:1035D000CE0101960E94A21863E070E0CE014996E8
:1035E0000E941007FC016081CE0101960E94A21882
:1035F000BE016D5E7F4FCE0101960E94671240E1D1
:1036000050E070E060E0CE0143960E94E42881E043
:1036100090E00E94802A66E971E0CE0101960E9446
:103620006C1864E070E0CE0149960E941007FC011E
:103630006081CE0101960E94A21865E070E0CE0183
:1036400049960E941007FC016081CE0101960E94FC
:10365000A218BE016D5E7F4FCE0101960E946712D7
:1036600040E150E070E060E0CE0143960E94E42823
:1036700082E090E00E94802A66E971E0CE01019626
:103680000E946C1866E070E0CE0149960E94100717
:10369000FC016081CE0101960E94A21867E070E0F3
:1036A000CE0149960E941007FC016081CE0101966F
:1036B0000E94A218BE016D5E7F4FCE0101960E944E
:1036C000671240E150E070E060E0CE0143960E9456
:1036D000E42883E090E00E94802A66E971E0CE0150
:1036E00001960E946C1868E070E0CE0149960E9435
:1036F0001007FC016081CE0101960E94A21869E0CA
:1037000070E0CE0149960E941007FC016081CE0155
:1037100001960E94A218BE016D5E7F4FCE010196F8
:103720000E94671240E150E070E060E0CE014396F5
:103730000E94E42884E090E00E94802A66E971E01B
:10374000CE0101960E946C186AE070E0CE014996A5
:103750000E941007FC016081CE0101960E94A21810
:103760006BE070E0CE0149960E941007FC01608179
:10377000CE0101960E94A218BE016D5E7F4FCE0160
:1037800001960E94671240E150E070E060E0CE01D7
:1037900043960E94E42885E090E00E94802A10E091
:1037A00000E0C8010E94782A813120F48EE891E07F
:1037B0000E940817C8010E94651240E150E0682F7E
:1037C00080E492E00E9478160530110521F080E92E
:1037D00091E00E9408170F5F1F4F0630110509F78F
:1037E00080E492E00E940D17CE0101960E9483179B
:1037F00067EC70E080E492E00E9438176CEA70E0B9
:1038000080E492E00E94381780E492E00E940D1755
:1038100068E873E180E090E00E94B309CE01499628
:103820000E9483176E960FB6F894DEBF0FBECDBF11
:10383000DF91CF911F910F91FF90EF90DF90CF908C
:10384000BF90AF909F908F90089569E971E0CE018D
:1038500049960E94F317882309F421C162E072E0BF
:1038600080E492E00E9438176FEF71E080E492E00C
:103870000E94381780E492E00E94A008892BD1F3BF
:10388000CE0101960E94D218BE016F5F7F4FCE011C
:1038900049960E944A17CE0101960E948317CE01D5
:1038A00049960E9496176CEF71E080E492E00E94C6
:1038B000E807CE0149960E9411178D8D9E8D66EE08
:1038C00071E00C9709F074C464EF71E080E492E059
:1038D0000E9438176DE871E0CE0101960E94301801
:1038E0006DE871E0CE0101960E946C1870E060E016
:1038F000CE0149960E941007FC016081CE0101961D
:103900000E94A21861E070E0CE0149960E94100763
:10391000FC016081CE0101960E94A21862E070E075
:10392000CE0149960E941007FC016081CE010196EC
:103930000E94A218CE0101960E948B1786E090E0AB
:103940000E94802A6DE871E0CE0101960E946C18F9
:1039500063E070E0CE0149960E941007FC0160818F
:10396000CE0101960E94A21864E070E0CE01499653
:103970000E941007FC016081CE0101960E94A218EE
:1039800065E070E0CE0149960E941007FC0160815D
:10399000CE0101960E94A218CE0101960E948B17BB
:1039A00087E090E00E94802A6DE871E0CE010196E8
:1039B0000E946C1866E070E0CE0149960E941007E4
:1039C000FC016081CE0101960E94A21867E070E0C0
:1039D000CE0149960E941007FC016081CE0101963C
:1039E0000E94A21868E070E0CE0149960E9410077C
:1039F000FC016081CE0101960E94A218CE010196C1
:103A00000E948B1788E090E00E94802A6DE871E0A8
:103A1000CE0101960E946C1869E070E0CE014996D3
:103A20000E941007FC016081CE0101960E94A2183D
:103A30006AE070E0CE0149960E941007FC016081A7
:103A4000CE0101960E94A2186BE070E0CE0149966B
:103A50000E941007FC016081CE0101960E94A2180D
:103A6000CE0101960E948B1789E090E00E94802A87
:103A7000C8010E9465124AE050E0682F80E492E09D
:103A80000E9478160930110521F082E991E00E9428
:103A900008170F5F1F4F0A30110551F7A1CE6BE9D0
:103AA00071E0CE0149960E94F317882309F424C1DE
:103AB00069EB71E080E492E00E94381766EB71E0F8
:103AC00080E492E00E94381780E492E00E94A0080F
:103AD000892BD1F3CE0101960E94D218BE016F5FEF
:103AE0007F4FCE0149960E944A17CE0101960E944F
:103AF0008317CE0149960E94961763EB71E080E42C
:103B000092E00E94E807CE0149960E9411178D8D20
:103B10009E8D6DE971E00C9709F04AC36BEA71E084
:103B200080E492E00E9438176DE871E0CE010196C2
:103B30000E9430186DE871E0CE0101960E946C1869
:103B400070E060E0CE0149960E941007FC016081A0
:103B5000CE0101960E94A21861E070E0CE01499664
:103B60000E941007FC016081CE0101960E94A218FC
:103B700062E070E0CE0149960E941007FC0160816E
:103B8000CE0101960E94A218CE0101960E948B17C9
:103B90008AE090E00E94802A6DE871E0CE010196F3
:103BA0000E946C1863E070E0CE0149960E941007F5
:103BB000FC016081CE0101960E94A21864E070E0D1
:103BC000CE0149960E941007FC016081CE0101964A
:103BD0000E94A21865E070E0CE0149960E9410078D
:103BE000FC016081CE0101960E94A218CE010196CF
:103BF0000E948B178BE090E00E94802A6DE871E0B4
:103C0000CE0101960E946C1866E070E0CE014996E4
:103C10000E941007FC016081CE0101960E94A2184B
:103C200067E070E0CE0149960E941007FC016081B8
:103C3000CE0101960E94A21868E070E0CE0149967C
:103C40000E941007FC016081CE0101960E94A2181B
:103C5000CE0101960E948B178CE090E00E94802A92
:103C60006DE871E0CE0101960E946C1869E070E089
:103C7000CE0149960E941007FC016081CE01019699
:103C80000E94A2186AE070E0CE0149960E941007D7
:103C9000FC016081CE0101960E94A2186BE070E0E9
:103CA000CE0149960E941007FC016081CE01019669
:103CB0000E94A218CE0101960E948B178DE090E021
:103CC0000E94802AC5010E9465124AE050E0682FD8
:103CD00080E492E00E947816FDE0AF16B10421F076
:103CE00082E991E00E9408172FEFA21AB20A8EE033
:103CF000A816B10439F774CD6DE971E0CE0149968B
:103D00000E94F317882309F424C16FE671E080E470
:103D100092E00E9438176CE671E080E492E00E9425
:103D2000381780E492E00E94A008892BD1F3CE01DD
:103D300001960E94D218BE016F5F7F4FCE01499657
:103D40000E944A17CE0101960E948317CE01499620
:103D50000E94961769E671E080E492E00E94E8070D
:103D6000CE0149960E9411178D8D9E8D63E571E0FD
:103D70000C9709F01DC261E671E080E492E00E94B8
:103D800038176DE871E0CE0101960E9430186DE899
:103D900071E0CE0101960E946C1870E060E0CE01E7
:103DA00049960E941007FC016081CE0101960E9495
:103DB000A21861E070E0CE0149960E941007FC0154
:103DC0006081CE0101960E94A21862E070E0CE01EF
:103DD00049960E941007FC016081CE0101960E9465
:103DE000A218CE0101960E948B178EE090E00E94EF
:103DF000802A6DE871E0CE0101960E946C1863E0A4
:103E000070E0CE0149960E941007FC016081CE014E
:103E100001960E94A21864E070E0CE0149960E94CB
:103E20001007FC016081CE0101960E94A21865E096
:103E300070E0CE0149960E941007FC016081CE011E
:103E400001960E94A218CE0101960E948B178FE066
:103E500090E00E94802A6DE871E0CE0101960E94F8
:103E60006C1866E070E0CE0149960E941007FC01D4
:103E70006081CE0101960E94A21867E070E0CE0139
:103E800049960E941007FC016081CE0101960E94B4
:103E9000A21868E070E0CE0149960E941007FC016C
:103EA0006081CE0101960E94A218CE0101960E9467
:103EB0008B1780E190E00E94802A6DE871E0CE01CE
:103EC00001960E946C1869E070E0CE0149960E944C
:103ED0001007FC016081CE0101960E94A2186AE0E1
:103EE00070E0CE0149960E941007FC016081CE016E
:103EF00001960E94A2186BE070E0CE0149960E94E4
:103F00001007FC016081CE0101960E94A218CE012B
:103F100001960E948B1781E190E00E94802AC601E1
:103F20000E9465124AE050E0682F80E492E00E940F
:103F30007816F1E1CF16D10421F082E991E00E94D8
:103F400008172FEFC21AD20A82E1C816D10439F736
:103F500047CC6FE971E0CE0149960E94F3178823A0
:103F600009F424C163E271E080E492E00E94381712
:103F700060E271E080E492E00E94381780E492E011
:103F80000E94A008892BD1F3CE0101960E94D2187D
:103F9000BE016F5F7F4FCE0149960E944A17CE0146
:103FA00001960E948317CE0149960E9496176DE1F3
:103FB00071E080E492E00E94E807CE0149960E94F9
:103FC00011178D8D9E8D67E071E00C9709F0F0C0A0
:103FD00065E171E080E492E00E9438176DE871E0DD
:103FE000CE0101960E9430186DE871E0CE01019675
:103FF0000E946C1870E060E0CE0149960E941007A4
:10400000FC016081CE0101960E94A21861E070E07F
:10401000CE0149960E941007FC016081CE010196F5
:104020000E94A21862E070E0CE0149960E9410073B
:10403000FC016081CE0101960E94A218CE0101967A
:104040000E948B1782E190E00E94802A6DE871E067
:10405000CE0101960E946C1863E070E0CE01499693
:104060000E941007FC016081CE0101960E94A218F7
:1040700064E070E0CE0149960E941007FC01608167
:10408000CE0101960E94A21865E070E0CE0149962B
:104090000E941007FC016081CE0101960E94A218C7
:1040A000CE0101960E948B1783E190E00E94802A46
:1040B0006DE871E0CE0101960E946C1866E070E038
:1040C000CE0149960E941007FC016081CE01019645
:1040D0000E94A21867E070E0CE0149960E94100786
:1040E000FC016081CE0101960E94A21868E070E098
:1040F000CE0149960E941007FC016081CE01019615
:104100000E94A218CE0101960E948B1784E190E0D4
:104110000E94802A6DE871E0CE0101960E946C1821
:1041200069E070E0CE0149960E941007FC016081B1
:10413000CE0101960E94A2186AE070E0CE01499675
:104140000E941007FC016081CE0101960E94A21816
:104150006BE070E0CE0149960E941007FC0160817F
:10416000CE0101960E94A218CE0101960E948B17E3
:1041700085E190E00E94802AC7010E9465124AE012
:1041800050E0682F80E492E00E947816F5E1EF1687
:10419000F10421F082E991E00E9408172FEFE21A62
:1041A000F20A86E1E816F10439F71ACB65EF70E000
:1041B00080E492E00E9438171BCB1F920F920FB63B
:1041C0000F9211248F939F938091E1009091E100D1
:1041D000937F9093E10083FF0FC01092E90091E07C
:1041E0009093EB001092EC0092E39093ED0010920C
:1041F0003F0298E09093F00082FF22C093E09093FA
:10420000E9009091F200992319F09AE39093E80065
:1042100090911802992341F0909118029150909337
:104220001802911101C05D9A90913E02992341F0CC
:1042300090913E02915090933E02911101C0289AB4
:1042400084FF18C08091E2008E7E81608093E2003E
:104250008091E1008F7E8093E10080911A028E7E32
:10426000806180931A029F918F910F900FBE0F90E3
:104270001F90189580FFF7CF8091E2008E7E8061BD
:104280008093E2008091E1008E7E8093E100809136
:104290001A028E7E8160E5CF1F920F920FB60F92A9
:1042A0001124CF92DF92EF92FF920F931F932F93DF
:1042B0003F934F935F936F937F938F939F93AF93AE
:1042C000BF93EF93FF93CF93DF93CDB7DEB76C9798
:1042D000DEBFCDBF1092E9008091E80083FF25C0CA
:1042E00068E0CE0145960E94DB0782EF8093E800EC
:1042F0008D8987FF39C09091E80090FFFCCF982FFF
:10430000907609F034C19E894F89588D2F89F88C99
:10431000911131C0803861F580911B028093F100CA
:104320001092F1008EEF8093E8006C960FB6F8942F
:10433000DEBF0FBECDBFDF91CF91FF91EF91BF9157
:10434000AF919F918F917F916F915F914F913F912D
:104350002F911F910F91FF90EF90DF90CF900F90D2
:104360000FBE0F901F9018959EEF9093E800C7CF57
:104370001092F100D5CF913059F48111D3CF413053
:10438000510581F680911B028D7F80931B02CACF5D
:10439000933049F48111C6CF4130510519F680910F
:1043A0001B028260F2CF953041F48091E80080FFDB
:1043B000FCCF20682093E300B5CF963009F0A9C068
:1043C0000B8D1C8D22E01092E900109216021092C3
:1043D0001502F2122EC010921402109213020E94C3
:1043E000AA071F8299E09983FA8291E09E8390EA5E
:1043F00098879AEF99872091150230911602275FCE
:104400003F4F3C832B838D831092E900109216025C
:1044100010921502109314020093130249E050E029
:10442000BE016F5F7F4F80E00E9484070E94AA0751
:1044300079CF10931402009313020E94F406DC015A
:1044400012960D911C910115110509F451C1D80165
:10445000ED91FC910480F581E02DBE016B5E7F4FF4
:10446000C8010995009709F03EC1F8010085118542
:10447000EACFF3E0FF120EC08F89882309F440C011
:10448000823061F440E860E18CEB93E00E945107D8
:10449000811148CF81E28093EB0047CF813029F42E
:1044A00040E867E084EB93E0F1CF833099F70E9416
:1044B000F406DC011296ED90FC908E010F5F1F4F09
:1044C0006801E114F10479F0D701ED91FC910680C7
:1044D000F781E02DB801C7010995080F111DF701FB
:1044E000E084F184EECFD8011C92F6010190002007
:1044F000E9F73197BF016C197D0940E0C601C6CFCD
:104500006EE973E0FB01449150E080E80E9484076B
:1045100009CF973009F4BECF983021F481E0809321
:10452000F10000CF993009F0FDCE837009F0B2CFD1
:10453000EDE3F1E081E031E096E32191222371F097
:104540008093E9003093EB00DF0111972C912093C9
:10455000EC009093ED008F5F873079F78EE78093C2
:10456000EA001092EA008F8980933F02DBCE8B8DA8
:104570009C8D1092E90010921602109215029093F1
:10458000140280931302898D811192C08E899D89B6
:10459000913A49F4813209F07DCF47E050E066E07E
:1045A00071E080E0B3CF913209F074CF833269F4C7
:1045B0008F89988DB0E0A0E0809302019093030171
:1045C000A0930401B0930501ADCE803269F48091CF
:1045D000E80082FFFCCF67E086E091E00E94DB0705
:1045E0008BEF8093E8009ECE823209F09BCE8F89BC
:1045F00080930D01EEEFFFE7859194918B3F9C4DE9
:1046000051F1E0E0F8E08091060190910701A0915E
:104610000801B0910901803B9440A105B105F1F476
:1046200080910D0180FD1AC0EE3F8AE0F80789F500
:1046300087E797E7918380838091600080931702DA
:1046400088E19BE00FB6F894A895809360000FBEB8
:104650009093600067CEEEEFFAE0D5CF8081918134
:104660008737974709F05ECEA895809160008861F2
:10467000809360008091170280936000EE3F2AE0F3
:10468000F20789F08091FE0A9091FF0A918380835E
:1046900049CE808191818737980751F29093FF0A24
:1046A0008093FE0AC5CF1092FF0A1092FE0A3ACEFE
:1046B0000E94F406DC0112960D911C910115110562
:1046C00009F4E8CED801ED91FC910190F081E02D44
:1046D000BE016B5E7F4FC8010995811123CEF801A1
:1046E00000851185EBCF181619060CF41BCED2CE1F
:1046F000F1E0FF12BECE62EA73E004CF1F920F9288
:104700000FB60F9211242F933F938F939F93AF93E4
:10471000BF9380910B0290910C02A0910D02B09179
:104720000E0230910A0223E0230F2D3758F501962F
:10473000A11DB11D20930A0280930B0290930C02DD
:10474000A0930D02B0930E0280910F02909110027F
:10475000A0911102B09112020196A11DB11D80938A
:104760000F0290931002A0931102B0931202BF9116
:10477000AF919F918F913F912F910F900FBE0F900E
:104780001F90189526E8230F0296A11DB11DD2CFC8
:10479000FF920F931F93CF93DF93E0E4F2E0138235
:1047A000128288EE93E0A0E0B0E084839583A68334
:1047B000B78389E691E0918380838FEF9FEF9587A0
:1047C0008487E0E9F2E080E5808381E08183E2E9AB
:1047D000F2E0C9E8D1E0D183C0831282138214824F
:1047E0001582E8E9F2E0D183C08312821382148239
:1047F0001582EEE9F2E0D183C08312821382148223
:104800001582E4EAF2E0D183C0831282138214821B
:104810001582E7EBF2E0D183C08312821382148207
:104820001582EAEAF2E0D183C083128213821482F5
:104830001582138612868AE08487EDEBF2E0D1833D
:10484000C0831282138214821582E3ECF2E0D183DA
:10485000C0831282138214821582E1EFF2E0D183C9
:10486000C083128213821482158290E080E00E943D
:10487000782A0BEE12E0F801808381E090E00E943C
:10488000782AF801818382E090E00E94782AF8017A
:10489000828383E090E00E94782AF801838384E099
:1048A00090E00E94782AF801848385E090E00E94DD
:1048B000782AF801858386E090E00E94782A07EE46
:1048C00012E0F801808387E090E00E94782AF801E6
:1048D000818388E090E00E94782AF801828389E051
:1048E00090E00E94782AF80183838AE090E00E9499
:1048F000782AF82E8BE090E00E94782A082F8CE02E
:1049000090E00E94782A182F8DE090E00E94782A8B
:10491000E1EEF2E0D183C083F282038314838583C6
:104920008EE090E00E94782AF82E8FE090E00E94BE
:10493000782A082F80E190E00E94782A182F81E1E0
:1049400090E00E94782AEBEDF2E0D183C083F282FE
:1049500003831483858382E190E00E94782AF82EF5
:1049600083E190E00E94782A082F84E190E00E9481
:10497000782A182F85E190E00E94782AE5EDF2E090
:10498000D183C083F282038314838583EFECF2E04A
:10499000138212828BE791E09183808380E590E01F
:1049A000958384836DE871E089EC92E0DF91CF918B
:1049B0001F910F91FF900C943018CF93DF93CDB7D8
:1049C000DEB7A6970FB6F894DEBF0FBECDBF7894C2
:1049D00084B5826084BD84B5816084BD85B5826004
:1049E00085BD85B5816085BD80916E0081608093B5
:1049F0006E0010928100809181008260809381001E
:104A0000809181008160809381008091800081602D
:104A100080938000809191008260809391008091CA
:104A200091008160809391008091900081608093DB
:104A300090008091C10084608093C1008091C1008A
:104A400082608093C1008091C10081608093C10029
:104A50008091C30081608093C3008091C000826018
:104A60008093C0008091C20081608093C2008091D9
:104A70007A00846080937A0080917A0082608093CB
:104A80007A0080917A00816080937A0080917A0028
:104A9000806880937A0010923F0210921B0210925D
:104AA0001A028091D70081608093D70080EA8093BA
:104AB000D80089B5806189BD89B5826089BD09B496
:104AC00000FEFDCF61E070E080E090E00E94B3095D
:104AD0008091D8008F7C80618093D8008091E00025
:104AE000807F8093E0008091E1008E7E8093E100E2
:104AF0008DE08093E200559A209A80E29EE4A0E047
:104B0000B0E08093440290934502A0934602B09394
:104B1000470260E084E10E945D0960E085E10E9457
:104B20005D0961E087E00E945D0961E088E00E9424
:104B30005D0961E084E00E945D0961E084E00E941B
:104B40002F0990E080E00E94782A8F3FF9F481E0FD
:104B500090E00E94782A8F3FC9F482E090E00E94A2
:104B6000782A8F3F99F483E090E00E94782A8F3F63
:104B700069F484E090E00E94782A8F3F39F485E060
:104B800090E00E94782A8F3F09F4AFC089E891E055
:104B90009A8389834091E3025091E4026091E50297
:104BA0007091E6024B835C836D837E839F878E8743
:104BB0004091DD025091DE026091DF027091E002CF
:104BC000488B598B6A8B7B8B9C8F8B8F4091D70244
:104BD0005091D8026091D9027091DA024D8F5E8FA8
:104BE0006F8F78A39AA389A38091E7029091E8023E
:104BF000A091E902B091EA028BA39CA3ADA3BEA34E
:104C00009E012F5F3F4FAE01425F5F4FBE01655E69
:104C10007F4FCE0181960E942F0B8FEC92E00E9475
:104C200082108FEF9FEF90934D0280934C0298EE8D
:104C3000C92E93E0D92EE12CF12C07E411E020E0FD
:104C4000822E20E0922E772473948FEC92E00E94C3
:104C50000E0F8CE1A82E82E0B82E612C1C821B82E4
:104C6000CD82DE82EF82F8861A8309836D86F50194
:104C7000219131915F018091D3029091D402281744
:104C8000390709F055C0CE0101960E949F0E873169
:104C900009F047C0CE0101960E94300E892B09F41D
:104CA00047C08B819C81998B888B8D819E81AF8140
:104CB000B8858A8B9B8BAC8BBD8B89859A85AB85A0
:104CC000BC858E8B9F8BA88FB98F1F870E878D8594
:104CD0008A8F8A8D8830D1F50E94E9188114910459
:104CE00009F4B3CF0E940000B0CF1FEF61E070E085
:104CF00080E090E00E94B3090E94E9181150B1F7DA
:104D00006DEC73E080E492E00E94381784E00E942A
:104D1000060961E0892B09F060E084E00E942F0918
:104D2000E4CFCE0101960E949F0E8C3109F4B2CFE0
:104D30006394F8E06F1292CF198A188ACA8ADB8AC4
:104D4000EC8AFD8A1F870E876A8EC3CFBB24B3947B
:104D5000CE010E960E94A90E882309F4E7C0CE0169
:104D60000E960E94300E892B99F3CE010E960E946A
:104D70001110A82E682F89EC92E00E94A2188AE0F8
:104D8000A81218C2BB2011F361EA71E0CE010E96A1
:104D90000E94261761EB71E0CE010E960E94261745
:104DA00069EC71E0CE010E960E942617CE010E9698
:104DB0000E940D1760EE71E0CE0101960E9430183E
:104DC000CE0101960E9489125C01CE0101960E94DB
:104DD0008317B7FCD0C0888999899C838B838A8983
:104DE0009B89AC89BD898D839E83AF83B8878E896B
:104DF0009F89A88DB98D89879A87AB87BC871A83CD
:104E000009838A8D8D876CE578E0CE0101960E943A
:104E1000381784E10E94060962E478E0892B11F4D6
:104E200069E078E0CE0101960E94381785E10E9482
:104E300006096FEE77E0892B11F466EB77E0CE017F
:104E400001960E94381761EB77E0CE0101960E942F
:104E5000381780912D02882309F473C061E087E040
:104E60000E942F0961E377E0CE0101960E94E807D6
:104E70006CEC76E0CE0101960E94E8076EED75E0DD
:104E8000CE0101960E9438176CEC75E0CE010196B8
:104E90000E94381780912C02882309F45FC061E0DA
:104EA00088E00E942F096CE475E0CE0101960E9413
:104EB000E80767EE74E0CE0101960E94E80769EF0B
:104EC00073E0CE0101960E94381767EE73E0CE01C1
:104ED00001960E9438176FED73E0CE0101960E9493
:104EE00038176CEE71E0CE0101960E943018CE01A9
:104EF00001960E9489125C01CE0101960E948317DF
:104F0000B7FC1CC170922D024091CD025091CE028F
:104F10006091C9027091CA0280E492E00E94E509A2
:104F20006DE871E089EC92E00E946C1861E070E03D
:104F300080E090E00E94B309CE010E960E94CC0E54
:104F4000CBCE60E087E00E942F096BE576E0CE01D2
:104F500001960E94E80766EE75E08CCF60E088E07D
:104F60000E942F0966E774E0CE0101960E94E807CF
:104F700061E074E0A0CF6DEB7CE0CE010E960E9464
:104F8000381766EB7CE0CE010E960E9438176FEA68
:104F90007CE0CE010E960E9438176FE77CE0CE01D0
:104FA0000E960E9438176DE57CE0CE010E960E94A9
:104FB000381764E57CE0CE010E960E94381769E34D
:104FC0007CE0CE010E960E94381760E17CE0CE01B5
:104FD0000E960E94381761EF7BE0CE010E960E947C
:104FE00038176AED7BE0CE010E960E9438176EEA04
:104FF0007BE0CE010E960E9438176DE77BE0CE0174
:105000000E960E94381769E57BE0CE010E960E944D
:1050100038176FE27BE0CE010E960E94381763E1ED
:105020007BE0CE010E960E94381769EF7AE0CE0140
:105030000E960E94381768ED7AE0CE010E960E9417
:10504000381766E97AE0CE010E960E94381761E9BA
:105050007AE0CE010E960E9438176DE57AE0CE0117
:105060000E960E94381769E47AE0CE010E960E94EF
:10507000381764E27AE0CE010E960E94381762E299
:105080007AE0CE010E960E94381768E17AE0CE01F0
:105090000E960E94381760E17AE0CE010E960E94CB
:1050A000381763EE79E0CE010E960E94381762EB56
:1050B00079E0CE010E960E94381762E979E0CE01C0
:1050C0000E960E9438176BE479E0CE010E960E948E
:1050D00038176EE079E0CE010E960E9438176BEF1C
:1050E00078E0CE010E960E94381764EF78E0CE018A
:1050F0000E960E9438176BEE78E0CE010E960E9455
:10510000381766EE78E0CE010E960E94381768E8F0
:1051100078E0CE010E960E9438176EE778E0CE0157
:105120000E960E94381766E778E0CE010E960E9430
:1051300038176EE678E0CE010E96D1CE63EF71E0BF
:10514000CE0101960E943018CE0101960E9489126C
:105150005C01CE0101960E948317B7FC03C0109238
:105160002D02D2CE6BEF71E0CE0101960E94301875
:10517000CE0101960E9489125C01CE0101960E9427
:105180008317B7FC03C070922C02BECE62E072E0BF
:10519000CE0101960E943018CE0101960E9489121C
:1051A0005C01CE0101960E948317B7FCADCE109230
:1051B0002C02AACEEDE0AE1609F4CACDB12CC8CDB2
:1051C00089EC92E00C948317B0E0A0E0EAEEF8E2FC
:1051D0000C94CC2A5C016B017A016115710519F000
:1051E000FB0191838083E114F10451F0C701029720
:1051F000839730F040E030E020E090E072C05E0144
:10520000E5012196F5011081812F90E00E94222A6C
:10521000892BA9F71D3201F52196F501118101E0D5
:10522000E114F10409F4DAC0F0E1EF16F10409F039
:1052300082C0103359F488818F7D883509F076C09B
:10524000198122960260F0E1EF2EF12C812C912C35
:10525000A12C88E0B82E8CC01B3221F4E5012296E7
:10526000F501118100E0DCCFEAE0EE16F10409F46B
:10527000BBC0F0E1EF16F10409F06DC0E7CF78E0B4
:10528000E72EF12C812C912CA12C60E1B62E70C060
:105290003FE9310F3A3128F439EA332E80C021E05A
:1052A0009AC0302F3170C114D10431F0222309F19A
:1052B0002197F601D183C08327FF21C060E070E011
:1052C00080E090E8311104C06FEF7FEF8FEF9FE730
:1052D00022E230E03093F8022093F702462F372F76
:1052E000282F642F732F822FCDB7DEB7E1E10C9406
:1052F000E82A01FF04C02297F601D183C08333233B
:1053000041F090958095709561957F4F8F4F9F4F9D
:10531000E5CF97FFE3CF82E290E09093F80280938D
:10532000F7026FEF7FEF8FEF9FE7D8CF10E3E11425
:10533000F10409F4A4CF28E0E216F10409F4A2CFA5
:105340000CF092CF812C912CA12CE0E4BE2E82E0B7
:10535000E816F10469F060E070E080E090E8970101
:105360000F2C000C440B550B0E949E2A49015A0138
:1053700020E060E070E0CB0127010F2C000C6608F4
:105380007708FE0150ED352E310E39E0331540F42B
:105390003FEB310F3A3108F07BCF49EC342E310E20
:1053A0003E141F040CF07DCF27FD15C0861697060E
:1053B000A806B90678F0A30192010E948E2A630D17
:1053C000711D811D911D61307105810520E89207D5
:1053D00008F465CF2FEF21961081D3CF103309F455
:1053E0002ACF2AE0E22EF12C9CEC892E982CA82CB6
:1053F0009CE0B92EBDCF1F93FC0199278827BC01E3
:10540000E89411911032E9F3193010F01E30C8F30E
:105410001B3251F01D3249F4689406C00E94362AAE
:10542000610F711D811D911D119110531A30B0F340
:105430003EF490958095709561957F4F8F4F9F4F6B
:105440001F91089591110C94652A803219F08950AA
:105450008550C8F70895BB274A3031F4992322F4C8
:10546000BDE2909581959F4F0C944C2A592F482F5F
:10547000372F262F660F771F881F991F660F771FFC
:10548000881F991F620F731F841F951F660F771F58
:10549000881F991F0895BB27FB015527AA27880F4E
:1054A000991FAA1FA41710F0A41B83955051B9F798
:1054B000A05DAA3308F0A95DA193009779F7B11117
:1054C000B1931192CB010C94682A992788270895EB
:1054D000DC01FC01672F71917723E1F7329704C05B
:1054E0007C916D9370836291AE17BF07C8F30895E6
:1054F000F999FECF92BD81BDF89A992780B508959C
:10550000262FF999FECF1FBA92BD81BD20BD0FB6DF
:10551000F894FA9AF99A0FBE01960895DB018F93D9
:105520009F930E94C02ABF91AF91A29F800D911DB1
:10553000A39F900DB29F900D11240895A1E21A2E01
:10554000AA1BBB1BFD010DC0AA1FBB1FEE1FFF1F27
:10555000A217B307E407F50720F0A21BB30BE40B77
:10556000F50B661F771F881F991F1A9469F76095BE
:105570007095809590959B01AC01BD01CF01089578
:105580000E94022BA59F900DB49F900DA49F800DAB
:10559000911D112408952F923F924F925F926F9226
:1055A0007F928F929F92AF92BF92CF92DF92EF92B3
:1055B000FF920F931F93CF93DF93CDB7DEB7CA1B34
:1055C000DB0B0FB6F894DEBF0FBECDBF09942A885F
:1055D000398848885F846E847D848C849B84AA8407
:1055E000B984C884DF80EE80FD800C811B81AA8194
:1055F000B981CE0FD11D0FB6F894DEBF0FBECDBF5F
:10560000ED010895A29FB001B39FC001A39F700D4B
:10561000811D1124911DB29F700D811D1124911DBA
:105620000895EE0FFF1F0590F491E02D09940F935C
:105630001F93CF93DF938230910510F482E090E0C6
:10564000E091FB02F091FC0230E020E0B0E0A0E04D
:10565000309799F42115310509F44AC0281B390BFC
:1056600024303105D8F58A819B816115710589F156
:10567000FB0193838283FE0111C04081518102812D
:10568000138148175907E0F04817590799F4109704
:1056900061F012960C93129713961C933296CF01D9
:1056A000DF91CF911F910F9108950093FB0210930A
:1056B000FC02F4CF2115310551F04217530738F0A1
:1056C000A901DB019A01BD01DF01F801C1CFEF01A2
:1056D000F9CF9093FC028093FB02CDCFFE01E20F45
:1056E000F31F819391932250310939832883D7CFB7
:1056F0002091F9023091FA02232B41F420911001FC
:10570000309111013093FA022093F90220910E0199
:1057100030910F012115310541F42DB73EB740916D
:10572000120150911301241B350BE091F902F09105
:10573000FA02E217F307A0F42E1B3F0B28173907D4
:1057400078F0AC014E5F5F4F2417350748F04E0FDD
:105750005F1F5093FA024093F902819391939FCF78
:10576000F0E0E0E09CCFCF93DF930097E9F0FC01FD
:10577000329713821282A091FB02B091FC02ED01DC
:1057800030E020E01097A1F420813181820F931F37
:105790002091F9023091FA022817390709F061C007
:1057A000F093FA02E093F902DF91CF910895EA01B4
:1057B000CE17DF07E8F54A815B819E01411551054F
:1057C000B1F7E901FB83EA8349915991C40FD51FD1
:1057D000EC17FD0761F4808191810296840F951F7B
:1057E000E90199838883828193819B838A83F0E096
:1057F000E0E012968D919C9113970097B9F52D9149
:105800003C911197CD010296820F931F2091F902CE
:105810003091FA022817390739F6309751F510926E
:10582000FC021092FB02B093FA02A093F902BCCFE3
:10583000D383C28340815181840F951FC817D90734
:1058400061F44E5F5F4F88819981480F591F5183E2
:1058500040838A819B81938382832115310509F0DE
:10586000B0CFF093FC02E093FB029ECFFD01DC0180
:10587000C0CF13821282D7CFB0E0A0E0E2E4FCE216
:105880000C94CD2A8C01009751F4CB010E94172B68
:105890008C01C801CDB7DEB7E0E10C94E92AFC0128
:1058A000E60FF71F9C0122503109E217F30708F4B5
:1058B0009DC0D901CD91DC911197C617D70798F0FB
:1058C000C530D10530F3CE0104978617970708F34A
:1058D000C61BD70B2297C193D1936D937C93CF01B5
:1058E0000E94B32BD6CF5B01AC1ABD0A4C018C0EC3
:1058F0009D1EA091FB02B091FC02512C412CF12C79
:10590000E12C109731F58091F9029091FA028815F7
:10591000990509F05CC04616570608F058C08091FA
:105920000E0190910F01009741F48DB79EB7409101
:10593000120150911301841B950BE817F90708F029
:1059400055C0F093FA02E093F902F9017183608384
:10595000A0CF8D919C91119712966C9012971396EF
:105960007C901397A815B90559F56C0142E0C40E57
:10597000D11CCA14DB0420F1AC014A195B09DA011D
:105980001296159780F06282738251834083D90109
:105990006D937C93E114F10471F0D7011396FC939D
:1059A000EE93129776CF22968C0F9D1FF90191836B
:1059B0008083F301EFCFF093FC02E093FB0269CF09
:1059C0004816590608F42C017D01D3019ACFCB016A
:1059D0000E94172B7C01009749F0AE01B8010E948C
:1059E000FE2CC8010E94B32B870153CF10E000E0CA
:1059F00050CF81E090E0F8940C94402DFB01DC0145
:105A000002C001900D9241505040D8F70895FB011B
:105A1000DC018D91019080190110D9F3990B089543
:105A2000FB01DC0101900D920020E1F70895FB01DC
:105A3000DC014150504048F001900D920020C9F720
:105A400001C01D9241505040E0F70895FB01519173
:105A50005523A9F0BF01DC014D9145174111E1F734
:105A600059F4CD010190002049F04D9140154111AC
:105A7000C9F3FB014111EFCF81E090E00197089558
:105A800016E0CEE8D6E004C0FE010E94112B21965C
:0A5A9000CF38D107C9F7F894FFCF13
:105A9A000004FFFFFFFF00E100000000000000001B
:105AAA00FD02800000000000FF0B6D0E6212ED0B7C
:105ABA00540CE30FA10D54106C0C000D150C81153C
:105ACA002B10A512C40F51125C0C580C00C1808116
