:100000000C9402060C942A060C942A060C942A06D8
:100010000C942A060C942A060C942A060C942A06A0
:100020000C942A060C942A060C94421C0C94B11CC5
:100030000C942A060C942A060C942A060C942A0680
:100040000C942A060C942A060C942A060C942A0670
:100050000C942A060C942A060C942A060C94E31E8F
:100060000C942A060C942A060C942A060C942A0650
:100070000C942A060C942A060C942A060C942A0640
:100080000C942A060C942A060C942A060C942A0630
:100090000C942A060C942A060C942A060C942A0620
:1000A0000C942A060C942A060C942A066279652E72
:1000B000526573756D6520616674657220352073B5
:1000C00065636F6E647300506C6561736520726563
:1000D000626F6F7420666F72207468652073657438
:1000E00074696E677320746F2074616B6520656638
:1000F000666563740053657474696E67204D6F6440
:10010000652045786974006C656E6774685F457238
:10011000726F72210075706461746521003E3E004B
:100120003E3E004E45575F49505F6164647265739F
:10013000733F284E756D626572204F6E6C795F73E8
:10014000616D706C653A313932313638303031306A
:10015000313029006C656E6774685F4572726F722A
:10016000210075706461746521003E3E003E3E00D2
:100170004E45575F4D41435F616464726573733FE1
:10018000284E756D626572204F6E6C795F73616D7C
:10019000706C653A3843314636343645433030303A
:1001A00029003E3E00583A4578697400323A495079
:1001B00000313A4D4143004E756D3F0049505F009C
:1001C0004D41435F0043757272656E7420616464D3
:1001D00072657373005665722E312E310054494D8D
:1001E00045204F5554203230735F454F4C3A4C46B2
:1001F000004144425344494F2053657474696E670B
:10020000204D6F6465210000000000250028002BB0
:10021000002E003100000000002300260029002CE1
:10022000002F000000000200090F0000030401007D
:100230000C000000000000000000000000000000B2
:100240000000080B00020202000009040000010285
:10025000020000052400100105240101010424020C
:10026000060524060001070581031000400904016A
:1002700000020A0000000705020240000007058393
:10028000024000000403090412010002EF020140D1
:10029000EA227800000101020301556E6B6E6F7750
:1002A0006E0042726F777365725377697463684446
:1002B000494F004D41435F616464726573735F45EC
:1002C00072726F72003C2F666F726D3E003C666FFB
:1002D000726D206D6574686F643D4745543E003C07
:1002E0002F666F726D3E003C6C6162656C20666FBC
:1002F000723D444F315F4F46463E3C696E707574A7
:1003000020747970653D726164696F2069643D4451
:100310004F315F4F4646206E616D653D444F312041
:1003200076616C75653D4F464620636865636B6515
:10033000643D636865636B6564206F6E636C6963BD
:100340006B3D207375626D697428293E4F46463CAB
:100350002F6C6162656C3E3C2F703E003C703E3CF1
:10036000623E343A444F313C2F623E203A203C6C8E
:100370006162656C20666F723D444F315F4F4E3E47
:100380003C696E70757420747970653D7261646942
:100390006F2069643D444F315F4F4E206E616D6543
:1003A0003D444F312076616C75653D4F4E202020D5
:1003B0006F6E636C69636B3D207375626D69742841
:1003C000293E4F4E3C2F6C6162656C3E003C6C6177
:1003D00062656C20666F723D444F315F4F46463E0A
:1003E0003C696E70757420747970653D72616469E2
:1003F0006F2069643D444F315F4F4646206E616D0A
:10040000653D444F312076616C75653D4F46462011
:100410006F6E636C69636B3D207375626D697428E0
:10042000293E4F46463C2F6C6162656C3E3C2F7006
:100430003E003C703E3C623E343A444F313C2F62B9
:100440003E203A203C6C6162656C20666F723D44D0
:100450004F315F4F4E3E3C696E70757420747970F9
:10046000653D726164696F2069643D444F315F4F3F
:100470004E206E616D653D444F312076616C75652F
:100480003D4F4E2020636865636B65643D6368651E
:10049000636B6564206F6E636C69636B3D2073757D
:1004A000626D697428293E4F4E3C2F6C6162656C09
:1004B0003E003C666F726D206D6574686F643D47E9
:1004C00045543E003C2F666F726D3E003C6C61628D
:1004D000656C20666F723D444F305F4F46463E3C30
:1004E000696E70757420747970653D726164696FAE
:1004F0002069643D444F305F4F4646206E616D6514
:100500003D444F302076616C75653D4F4646206313
:100510006865636B65643D636865636B6564206FE4
:100520006E636C69636B3D207375626D6974282915
:100530003E4F46463C2F6C6162656C3E3C2F703EE0
:10054000003C703E3C623E333A444F303C2F623EAA
:10055000203A203C6C6162656C20666F723D444FAE
:10056000305F4F4E3E3C696E7075742074797065D3
:100570003D726164696F2069643D444F305F4F4E46
:10058000206E616D653D444F302076616C75653D30
:100590004F4E2020206F6E636C69636B3D20737536
:1005A000626D697428293E4F4E3C2F6C6162656C08
:1005B0003E003C6C6162656C20666F723D444F305A
:1005C0005F4F46463E3C696E707574207479706565
:1005D0003D726164696F2069643D444F305F4F46EE
:1005E00046206E616D653D444F302076616C7565C7
:1005F0003D4F4646206F6E636C69636B3D2073759B
:10060000626D697428293E4F46463C2F6C616265D5
:100610006C3E3C2F703E003C703E3C623E333A44A0
:100620004F303C2F623E203A203C6C6162656C206A
:10063000666F723D444F305F4F4E3E3C696E707541
:100640007420747970653D726164696F2069643DDE
:10065000444F305F4F4E206E616D653D444F3020FA
:1006600076616C75653D4F4E2020636865636B65F0
:10067000643D636865636B6564206F6E636C69637A
:100680006B3D207375626D697428293E4F4E3C2F77
:100690006C6162656C3E003C68723E003C703E3CA2
:1006A000623E323A4449313C2F623E203A203C6659
:1006B0006F6E7420636F6C6F723D7265643E3C6256
:1006C0003E484947483C2F623E3C2F666F6E743E61
:1006D0003C2F703E003C703E3C623E323A44493111
:1006E0003C2F623E203A204C4F573C2F703E003C3E
:1006F000703E3C623E313A4449303C2F623E203AE3
:10070000203C666F6E7420636F6C6F723D7265641F
:100710003E3C623E484947483C2F623E3C2F666F54
:100720006E743E3C2F703E003C703E3C623E313A5F
:100730004449303C2F623E203A204C4F573C2F70AA
:100740003E003C666F726D206D6574686F643D4756
:1007500045543E003C2F68746D6C3E003C2F626F28
:1007600064793E003C2F666F6F7465723E003C708A
:10077000207374796C653D746578742D616C69675C
:100780006E3A63656E7465723B3E3C666F6E7420B4
:1007900073697A653D27322720636F6C6F723D273E
:1007A00023383038303830273E6269742D747261D6
:1007B00064652D6F6E652E4C54443C6272202F3E52
:1007C0003C2F666F6E743E3C2F703E003C68723E5C
:1007D000003C666F6F7465723E003C2F6469763E24
:1007E000003C6469762069643D2273775F646174BC
:1007F00061223E003C703E3C666F6E742073697AE5
:10080000653D27322720636F6C6F723D2723383098
:1008100038303830273E726566726573682F3373DF
:100820003C6272202F3E3C2F666F6E743E3C703EE1
:10083000003C703E3C666F6E742073697A653D279C
:10084000362720636F6C6F723D272334313639456C
:1008500031273E3C623E42726F7773657220537758
:10086000697463682044494F3C2F623E3C2F666F99
:100870006E743E3C2F703E003C626F6479206F6E58
:100880006C6F61643D224765745377697463684493
:100890006174612829223E003C626F647920737480
:1008A000796C653D27636F6C6F723A7267622830AE
:1008B0002C302C30293B746578742D616C69676E1F
:1008C0003A6C6566743B273E003C6469762073741D
:1008D000796C653D2770616464696E673A203330D6
:1008E0007078203430707820353070782034307053
:1008F000783B20273E003C2F686561643E003C2F1A
:100900007363726970743E007D0073657454696D21
:10091000656F7574282747657453776974636844F5
:100920006174612829272C2033303030293B007234
:100930006571756573742E73656E64286E756C6C65
:10094000293B00726571756573742E6F70656E2832
:1009500022474554222C2022616A61785F737769AF
:1009600074636822202B206E6F63616368652C209E
:1009700074727565293B007D7D7D7D00646F6375B4
:100980006D656E742E676574456C656D656E744239
:10099000794964282273775F6461746122292E6922
:1009A0006E6E657248544D4C203D20746869732EFC
:1009B000726573706F6E7365546578743B00696619
:1009C0002028746869732E726573706F6E73655436
:1009D00065787420213D206E756C6C29207B006940
:1009E000662028746869732E737461747573203D72
:1009F0003D2032303029207B0069662028746869E8
:100A0000732E72656164795374617465203D3D2075
:100A10003429207B00726571756573742E6F6E7258
:100A20006561647973746174656368616E6765207C
:100A30003D2066756E6374696F6E2829207B007691
:100A400061722072657175657374203D206E6577E3
:100A500020584D4C487474705265717565737428D4
:100A6000293B006E6F6361636865203D2022266E1E
:100A70006F63616368653D22202B204D6174682E91
:100A800072616E646F6D2829202A20313030303039
:100A900030303B00686973746F72792E7265706CC8
:100AA00061636553746174652827272C2027272CE0
:100AB0002075726C2E706174686E616D65293B00E3
:100AC000706172616D732E64656C65746528276D45
:100AD0006F646527293B0076617220706172616DD9
:100AE00073203D2075726C2E73656172636850616E
:100AF00072616D733B007661722075726C203D20CF
:100B00006E65772055524C2877696E646F772E6C2E
:100B10006F636174696F6E2E68726566293B00664B
:100B2000756E6374696F6E2047657453776974637B
:100B300068446174612829207B003C73637269708A
:100B4000743E003C7469746C653E42726F777365E5
:100B500072205377697463682044494F3C2F74694D
:100B6000746C653E003C6D657461206E616D653D21
:100B700076696577706F727420636F6E74656E74DA
:100B80003D77696474683D6465766963652D77694E
:100B90006474683E003C686561643E003C68746D46
:100BA0006C3E003C21444F43545950452068746DBD
:100BB0006C3E0000000000240027002A002D0030B9
:100BC000000408020110408040102040804080084E
:100BD00002040180402010020110801020404020BB
:100BE00004040404040304050202020204030202D2
:100BF00002020606060606060404020202040400B7
:100C00002D1F102411241FBECFEFDAE0DEBFCDBFB1
:100C100012E0A0E0B1E0EAEFF0E502C005900D922D
:100C2000A430B107D9F722E0A4E0B2E001C01D92E0
:100C3000A73FB207E1F716E0C1E0D6E004C0219774
:100C4000FE010E944126C030D107C9F70E940D2045
:100C50000C9470280C940000FC01809139028823C8
:100C600011F13FB7F89482E08093E9002091F200FF
:100C7000822F90E01816190614F481E090E0882382
:100C800039F0289844E6409338024091F1004083BF
:100C9000222339F02091F200211103C02BE620938A
:100CA000E8003FBF08958FEF9FEF08952FB7F894A6
:100CB00083E08093E9009091E800892F807295FF8E
:100CC00004C09091F20080E4891B2FBF08958091A9
:100CD0002C0281110DC082E08093280284E0809371
:100CE000290210922B0210922A0281E080932C029A
:100CF00088E292E0089521E0FC018485883009F4BF
:100D000020E0822F0895FC0124813581621773074A
:100D100020F480819181009729F41092130283E1DD
:100D200092E00895860F971F0895089540910F024D
:100D30005091100220910D0230910E02421753077C
:100D4000B4F49091E8009570E1F39091E80092FD81
:100D500019C08093F10080910F02909110020196CA
:100D60008F739927892B19F48EEF8093E800809177
:100D70000F029091100201969093100280930F023F
:100D800081E0089580E00895EF92FF920F931F9302
:100D9000CF93DF93F82E192FE62E042F81E0860FD4
:100DA000880F0E94960683E00E949606CF2DD12FD1
:100DB000EC0EFD2EF11CCE15DF05B9F007FF13C0B8
:100DC000FE0184910E949606182F80E00E949606EC
:100DD000812321968111EFCFDF91CF911F910F9148
:100DE000FF90EF9008958881EDCF81E0F5CFDF92FD
:100DF000EF92FF920F931F93CF93DF93D82E8A0128
:100E0000EB017B01E40EF51ECE15DF0559F0D7FE90
:100E100012C0FE0184910E94960621968111F4CFA2
:100E20000FEF1FEFC801DF91CF911F910F91FF903E
:100E3000EF90DF9008958881EECF0F931F93CF93AB
:100E4000DF931F92CDB7DEB782E0898342E450E0A2
:100E500062E472E080E80E94F7060E946706DC0107
:100E600012960D911C910115110589F0D801ED9193
:100E7000FC910280F381E02DBE016F5F7F4FC801BE
:100E8000099597FD04C0F80100851185ECCF898193
:100E90000F90DF91CF911F910F910895615030F025
:100EA0002091F100FC0120830196F8CF289884E678
:100EB000809338020895EF92FF920F931F93CF9380
:100EC000DF938C017B01D0E0C0E0F701EC0FFD1F48
:100ED0006491662361F0D801ED91FC910190F0815D
:100EE000E02DC8010995892B11F02196EECFCE0196
:100EF000DF91CF911F910F91FF90EF900895AF92E6
:100F0000BF92CF92DF92EF92FF920F931F93CF93F6
:100F1000DF936C017B018B01040F151FEB015E0158
:100F2000AE18BF08C017D10759F06991D601ED91ED
:100F3000FC910190F081E02DC6010995892B79F78C
:100F4000C501DF91CF911F910F91FF90EF90DF903E
:100F5000CF90BF90AF900895CF93DF931F92CDB7FE
:100F6000DEB76983DC01ED91FC910280F381E02D15
:100F700041E050E0BE016F5F7F4F09950F90DF9118
:100F8000CF91089583E08093E9008091F200882357
:100F900019F08AE38093E80008950E94560690E0D5
:100FA0000895CF93DF931F92CDB7DEB7FC01848500
:100FB000958597FD08C02FEF3FEF358724870F9069
:100FC000DF91CF910895CE0101960E942C060197E2
:100FD00019F4898190E0F3CF8FEF9FEFF0CF0F935B
:100FE0001F93CF93DF931F92CDB7DEB78C01FC0127
:100FF0008485958597FF0BC0CE0101960E942C0633
:10100000019771F4898190E0F80195878487F80150
:10101000848595850F90DF91CF911F910F91089551
:101020008FEF9FEFF1CFFC018485958597FD0BC075
:101030009FB7F89482E08093E9008091F2009FBF0F
:1010400090E0019608959FB7F89482E08093E900BC
:101050008091F2009FBF90E0089581508F3008F09A
:1010600047C0E82FF0E0E95CF74F0C9441265408A4
:10107000580846084C0850087808780878085B0833
:101080006108650869086F08780873088091800016
:101090008F77809380000895809180008F7DF9CFB5
:1010A00080918000877FF5CF84B58F7784BD0895C8
:1010B00084B58F7DFBCF809190008F7780939000D7
:1010C0000895809190008F7DF9CF80919000877F67
:1010D000F5CF8091C0008F778093C00008958091F4
:1010E000C0008F7DF9CF8091C200877F8093C200BE
:1010F0000895CF93DF93282F30E0F901ED5DFD4F88
:101100008491F901EF53F44FD491F901E052F44F77
:10111000C491CC23A1F081110E942D08EC2FF0E0A6
:10112000EE0FFF1FEB5EFD4FA591B491EC91ED2307
:1011300081E090E009F480E0DF91CF91089580E0B4
:1011400090E0FACF1F93CF93DF93282F30E0F9017F
:10115000ED5DFD4F8491F901EF53F44FD491F90106
:10116000E052F44FC491CC23A9F0162F81110E94B4
:101170002D08EC2FF0E0EE0FFF1FE95FFD4FA5916A
:10118000B4918FB7F894EC91111108C0D095DE237B
:10119000DC938FBFDF91CF911F910895DE2BF8CFA5
:1011A000CF93DF9390E0FC01EF53F44F24918052F2
:1011B000944FFC0184918823D1F090E0880F991F0F
:1011C000FC01ED54F44FA591B491FC01E95FFD4F92
:1011D000C591D49161110EC09FB7F8948C91E22F04
:1011E000E0958E238C932881E223E8839FBFDF91D3
:1011F000CF9108958FB7F894EC91E22BEC938FBFC9
:10120000F6CF3FB7F8948091090290910A02A0911D
:101210000B02B0910C0226B5A89B05C02F3F19F018
:101220000196A11DB11D3FBFBA2FA92F982F882766
:10123000BC01CD01620F711D811D911D42E0660F41
:10124000771F881F991F4A95D1F708958F929F9213
:10125000AF92BF92CF92DF92EF92FF924B015C016F
:101260000E9401096B017C010E9401096C197D0932
:101270008E099F09683E734081059105A8F321E01E
:10128000821A9108A108B10888EEC80E83E0D81E22
:10129000E11CF11C81149104A104B10429F7FF9011
:1012A000EF90DF90CF90BF90AF909F908F90089578
:1012B0008F929F92AF92BF92CF92DF92EF92FF9266
:1012C0000F931F93CF93DF936C017B018A01809171
:1012D0000D01882309F45CC080913902882309F448
:1012E00057C08091140280FF05C08091E0008260A9
:1012F0008093E000E801B12C8AEFA82E93E0892EBC
:101300002AE3922E209711F4BB20D9F10E945606B1
:1013100081110AC0AA94AA20D9F161E070E080E0AE
:1013200090E00E942609EECF8C171D0611F00CF0FC
:101330008C2F9FB7F8948092E9002091E80025FD5A
:1013400002C09FBFDFCF282F30E0C21BD30BF701B5
:10135000815020F041914093F100FACFE20EF31E4C
:10136000BB2021F09092E800B12CEBCF8091E800F7
:1013700085FDE7CF9092E800BB24B394209709F352
:10138000F3CF5D9884E680931202101611063CF0AC
:1013900081E090E0F6019383828310E000E0C801D1
:1013A000DF91CF911F910F91FF90EF90DF90CF9041
:1013B000BF90AF909F908F9008952FB7F894609151
:1013C00005027091060280910702909108022FBFDA
:1013D00008950F931F930E94DD096093420270935A
:1013E000430280934402909345028AE392E00E9474
:1013F000D10797FF1DC00E94DD09009142021091A4
:1014000043022091440230914502601B710B820B14
:10141000930B00913E0210913F02209140023091C7
:1014200041026017710782079307F8F28FEF9FEF71
:101430001F910F91089561E0809135020C94A208EC
:1014400060E0809135020C94A20808958EBD0000E2
:101450000DB407FEFDCF8EB508958CBD9DBD0895DA
:10146000CF93DF93D82FC62F80918A0290918B0261
:101470000E942D0A0E94200A80E00E94260A8D2FD9
:101480000E94260A8C2F0E94260A80E00E94260ACB
:10149000C82F0E941B0A8C2FDF91CF910895DF92F5
:1014A000EF92FF920F931F93CF93DF93D82FD92EF4
:1014B000C62F7A01890180918A0290918B020E9445
:1014C0002D0A0E94200A8D2D0E94260A8D2F0E942F
:1014D000260A8C2F0E94260AE701E00EF11ECE1587
:1014E000DF0521F089910E94260AF9CF0E941B0A8C
:1014F000C801DF91CF911F910F91FF90EF90DF9086
:1015000008951F93CF93DF93182FD62FC42F809168
:101510008A0290918B020E942D0A0E94200A80E08C
:101520000E94260A812F0E94260A8D2F0E94260AD9
:101530008C2F0E94260A0E941B0A81E0DF91CF9126
:101540001F9108958F929F92BF92CF92DF92EF9258
:10155000FF920F931F93CF93DF937C016B018A015E
:10156000E901B090B002B092350268EE73E080E01D
:1015700090E00E94260961E08B2D0E94D008BFB642
:10158000F89480913402811127C0E1EFFBE084914F
:10159000E2EDFBE09491E82FF0E0EE0FFF1FED5439
:1015A000F44FA591B491EC91E92321F461E081E13C
:1015B0000E94A20861E081E10E94D0088CB58061A0
:1015C0008CBD8CB580648CBD61E08FE00E94D0083A
:1015D00061E080E10E94D008809134028F5F8093A7
:1015E0003402BFBE60E090E080E00E94300A482FE5
:1015F000406864E090E080E00E94810A8CE0B82EB0
:1016000098E0892E912C42E06B2D8EE190E00E94B3
:10161000810A42E06B2D8FE190E00E94810A81E017
:10162000881A9108E0E2BE0E8114910461F726E069
:1016300030E045EE52E064E089E090E00E944F0A1D
:10164000A7014E5F5F4F24E030E064E08FE090E060
:101650000E944F0AA8014E5F5F4F24E030E064E033
:1016600081E090E00E944F0AAE014E5F5F4F24E0A0
:1016700030E064E085E090E00E944F0AF60182814C
:101680009381A481B5818093A6029093A702A09331
:10169000A802B093A902DF91CF911F910F91FF9003
:1016A000EF90DF90CF90BF909F908F9008959B0117
:1016B0008295880F807E6CE0680FC9010C94810AC6
:1016C000CF93DF93EC01898D9A8D892B41F0E881CE
:1016D000F9810284F385E02DCE010995F4CFDF91E5
:1016E000CF910895CF93DF931F92CDB7DEB7698373
:1016F000DC01ED91FC910280F381E02D41E050E0AE
:10170000BE016F5F7F4F09950F90DF91CF910895D4
:101710001F93CF93DF93FB01DC0158961C921E921E
:1017200057972281211109C02381211106C02481EC
:10173000211103C02581222339F14115510521F1E1
:10174000EA01DC011C961C91AF014E5F5F4F612FD7
:101750006295660F607E645F24E030E08CE090E08C
:101760000E944F0A4D2F60E170E0812F0E94570BBD
:101770004C2F61E170E0812F0E94570B81E090E0D7
:10178000DF91CF911F91089590E080E0F9CFFC01A7
:10179000818D928D0895FC0185899689089529E8A7
:1017A00031E0FC0131832083FB0141895289638947
:1017B0007489FC014283538364837583089580E0B8
:1017C0000895CF93DF931F92CDB7DEB76983DC0115
:1017D000ED91FC910280F381E02D41E050E0BE01EB
:1017E0006F5F7F4F09950F90DF91CF910895FC01B6
:1017F0009485FB018485981303C081E0983009F437
:1018000080E008950895CF93DF931F92CDB7DEB7A0
:101810006983DC01ED91FC910280F381E02D41E0D0
:1018200050E0BE016F5F7F4F09950F90DF91CF9120
:1018300008959B018295880F807E68E0680FC9013A
:101840000C94300ACF93C82F462F61E070E00E94BD
:10185000570B61E070E08C2F0E94190C8111F9CFB9
:10186000CF910895CF93C82F60E170E00E94220CC1
:101870004FEF62E070E08C2FCF910C94570B0F93D9
:101880001F93CF93DF93C82FD62F8A010E94320C6B
:101890004D2F70E060E08C2F0E94570B0115110551
:1018A000B9F0412F64E070E08C2F0E94570B402F5D
:1018B00065E070E08C2F0E94570B61E070E08C2F88
:1018C0000E94220C81E0DF91CF911F910F9108952A
:1018D00000913602109137020F5F1F4F10933702AD
:1018E00000933602DECFCF93DF93EC018C858830F6
:1018F00061F00E94320CEC85F0E0EE0FFF1FEA5E13
:10190000FD4F1182108288E08C87DF91CF9108957E
:10191000AF92BF92CF92DF92EF92FF920F931F93FD
:10192000CF93DF93F82E5B016A01E22E68E270E04C
:101930000E94190C082F10E0102F002769E270E0B8
:101940008F2D0E94190CE801C80FD11D80918A02C9
:1019500090918B020E942D0A0E94200A8D2F0E94D6
:10196000260A8C2F0E94260A8F2D8295880F807E52
:10197000885E0E94260A8501AC0CBD1C80E00E9496
:10198000260AF80181938F01EA15FB05B9F70E9439
:101990001B0AE11018C0CC0DDD1D4D2F68E270E070
:1019A0008F2D0E94570B4C2F69E270E08F2DDF9135
:1019B000CF911F910F91FF90EF90DF90CF90BF904C
:1019C000AF900C94570BDF91CF911F910F91FF9027
:1019D000EF90DF90CF90BF90AF9008950F931F933B
:1019E000CF93DF931F92CDB7DEB78C01DC01ED9171
:1019F000FC910084F185E02D0995892B91F021E07F
:101A000041E050E0BE016F5F7F4FF80184850E9486
:101A1000880C898190E00F90DF91CF911F910F91F9
:101A200008958FEF9FEFF7CFCF93DF931F92CDB73E
:101A3000DEB7FC01218D328D8FEF9FEF232B59F004
:101A400021E041E050E0BE016F5F7F4F84850E943E
:101A5000880C898190E00F90DF91CF910895BF921B
:101A6000CF92DF92EF92FF920F931F93CF93DF936A
:101A7000B82E6B017A01890164E270E00E94190CB2
:101A8000C82F65E270E08B2D0E94190CD0E0DC2F8E
:101A9000CC278C0D9D2D911DC80FD91F6B2D6295E4
:101AA000660F607E6C5E9801A701CE010E944F0A0E
:101AB000C00FD11F4D2F64E270E08B2D0E94570B99
:101AC0004C2F65E270E08B2DDF91CF911F910F912C
:101AD000FF90EF90DF90CF90BF900C94570B1F9327
:101AE000CF93DF93182F66E270E00E94190CC82F85
:101AF000D0E0DC2FCC2767E270E0812F0E94190C28
:101B00008C0F9D2F911DDF91CF911F910895FF9212
:101B10000F931F93CF93DF93F82E10E000E08F2DEB
:101B20000E946F0DEC01892B21F08F2D0E946F0D0B
:101B30008C01C017D10799F7CE01DF91CF911F918A
:101B40000F91FF900895FC018485883011F00C946A
:101B5000870D90E080E008951F93CF93DF93182FB7
:101B600060E270E00E94190CC82FD0E0DC2FCC2777
:101B700061E270E0812F0E94190C8C0F9D2F911D46
:101B8000DF91CF911F910895FF920F931F93CF93F1
:101B9000DF93F82E10E000E08F2D0E94AC0DEC01D9
:101BA000892B21F08F2D0E94AC0D8C01C017D1071D
:101BB00099F7CE01DF91CF911F910F91FF9008957A
:101BC000AF92BF92CF92DF92FF920F931F93CF936A
:101BD000DF938C015B01EA01FC01C788D08CF4849F
:101BE0008F2D0E94C40D8C179D0720F48F2D0E940D
:101BF000C40DEC019E01A501B6018F2D0E942F0D91
:101C0000F8018789908D8C0F9D1F908F878BCE0157
:101C1000DF91CF911F910F91FF90DF90CF90BF90F8
:101C2000AF900895FC018485883021F063E070E076
:101C30000C94190C80E00895CF93DF93FC01248568
:101C40002830D9F0EC010E94120E843189F08823EB
:101C500079F0883169F021E08C3159F4E881F9811B
:101C60000084F185E02DCE01099521E0892B09F44E
:101C700020E0822FDF91CF91089580E0FBCFCF92BB
:101C8000DF92EF92FF92CF93DF93EC018C85883047
:101C900089F168E070E00E94220C0E94DD096B016E
:101CA0007C01CE010E94120E882391F00E94DD0972
:101CB0006C197D098E099F09683E73408105910565
:101CC00038F461E070E080E090E00E942609E9CFFE
:101CD000CE010E94120E882319F08C850E94320CCE
:101CE000EC85F0E0EE0FFF1FEA5EFD4F11821082DF
:101CF00088E08C87DF91CF91FF90EF90DF90CF90BD
:101D000008954F925F926F927F928F929F92AF92BF
:101D1000BF92CF92DF92EF92FF921F93CF93DF9308
:101D2000CDB7DEB72D970FB6F894DEBF0FBECDBF8F
:101D30007C0196E1A92E92E0B92E10E0D12CC12CA5
:101D400028EE422E23E0522E612C712C37E4832E94
:101D500031E0932E1C821B824D825E826F827886D8
:101D60009A8289821D87D5012D913D915D01F701F0
:101D70008481958128173907B1F4CE0101960E941C
:101D8000120E843199F1CE0101960E94120E8C310F
:101D900051F4CE0101960E94A30D892B21F4CE01AE
:101DA00001960E943F0E1F5F1830A1F6CD2841F426
:101DB000D701ED91FC910084F185E02DC7010995D3
:101DC0002D960FB6F894DEBF0FBECDBFDF91CF9139
:101DD0001F91FF90EF90DF90CF90BF90AF909F90BA
:101DE0008F907F906F905F904F900895CC24C39414
:101DF000D12CD9CFCF92DF92EF92FF921F93CF9346
:101E0000DF93182F6B017A010E94870DEC01009778
:101E1000D9F463E070E0812F0E94190C843159F0ED
:101E2000882349F0C1E0D0E08C3111F4D0E0C0E06B
:101E3000D195C195D109CE01DF91CF911F91FF902E
:101E4000EF90DF90CF900895E816F9060CF4E701C3
:101E50001C161D0684F720E0AE01B601812F0E94FA
:101E6000880C60E470E0812F0E94220CE4CFCF93B5
:101E7000DF93FC01218D328D2115310529F48FEF7F
:101E80009FEFDF91CF910895EC01848542175307AE
:101E900008F0A9010E94FA0E1816190684F7298D78
:101EA0003A8D281B390B3A8F298FEBCF0F931F9355
:101EB000CF93DF931F92CDB7DEB7FC01218D328D1A
:101EC000232B41F48FEF9FEF0F90DF91CF911F9164
:101ED0000F9108958C0141E050E0BE016F5F7F4F8C
:101EE000FC0184850E94FA0E181619065CF7F801A9
:101EF000818D928D0197928F818F898190E0E4CFBF
:101F0000FC0184850C94FA0ECF93DF931F92CDB71A
:101F1000DEB741E050E0BE016F5F7F4FFC0184857A
:101F20000E94FA0E1816190634F4898190E00F9079
:101F3000DF91CF9108958FEF9FEFF9CFCF93FC0101
:101F4000C48560E270E08C2F0E94220C62E070E099
:101F50008C2F0E94190C84FD11C062E070E08C2F60
:101F60000E94190C83FFF2CF48E162E070E08C2FF1
:101F70000E94570B90E080E0CF91089540E162E02D
:101F800070E08C2F0E94570B81E090E0F5CFEF922C
:101F9000FF921F93CF93DF93FC012485283039F003
:101FA00080E0DF91CF911F91FF90EF9008957B012A
:101FB000EC0110E063E070E0812F0E94190C8111A8
:101FC0000EC01C878C85883059F3FE86ED861A8EEC
:101FD000198EA70162E00E943F0C81E0E2CF8831B8
:101FE00081F31F5F183031F7EDCF8F929F92AF9240
:101FF000BF92CF92DF92EF92FF920F931F93CF93F6
:10200000DF93CDB7DEB72D970FB6F894DEBF0FBEC6
:10201000CDBF7C0110E000E038EE832E33E0932E3C
:10202000A12CB12C47E4C42E41E0D42E1C821B828B
:102030008D829E82AF82B886DA82C9820D87CE01F8
:1020400001960E94120E811130C0F7014481558122
:1020500061E0802F0E943F0C63E070E0802F0E94BF
:10206000190C833129F462E070E0802F0E94220C69
:10207000F70184819581000F111FF801EA5EFD4F81
:10208000918380832D960FB6F894DEBF0FBECDBF2F
:10209000DF91CF911F910F91FF90EF90DF90CF9044
:1020A000BF90AF909F908F9008950F5F1F4F0830A3
:1020B000110509F0BBCFE6CF8F929F92AF92BF92EE
:1020C000CF92DF92EF92FF920F931F93CF936C0109
:1020D0005B017A01FC01C485C830A1F481E090E085
:1020E000F60193838283F12CE12CC701CF911F91DC
:1020F0000F91FF90EF90DF90CF90BF90AF909F90A7
:102100008F9008958A014130584010F000E018E0A7
:102110008C2F0E94C40D4C0163E070E08C2F0E9454
:10212000190C873111F08C3109F58016910680F376
:102130009801A50170E060E08C2F0E942F0D60E2F5
:1021400070E08C2F0E94220C62E070E08C2F0E94C5
:10215000190C84FD0EC063E070E08C2F0E94190CF6
:102160008111F2CF8C2F0E94320CB8CF10E000E02A
:10217000DFCF40E162E070E08C2F0E94570B012B13
:1021800009F0B3CFABCF3F924F925F926F927F92A5
:102190008F929F92AF92BF92CF92DF92EF92FF9277
:1021A0000F931F93CF93DF93CDB7DEB72D970FB665
:1021B000F894DEBF0FBECDBF6C015B014A010E94E7
:1021C000810E86E1E82E82E0F82E312C10E000E04E
:1021D00098EE492E93E0592E612C712C1C821B82A3
:1021E0004D825E826F82788687E491E09A8389834C
:1021F0003D86F701219131917F01F601848195811E
:102200002817390771F4CE0101960E94120E87310A
:1022100041F4A401B501CE0101960E945C10080FA3
:10222000191F3394F8E03F12D9CFC8012D960FB68D
:10223000F894DEBF0FBECDBFDF91CF911F910F91FC
:10224000FF90EF90DF90CF90BF90AF909F908F90D6
:102250007F906F905F904F903F900895DF92EF9244
:10226000FF920F931F93CF93DF93FC0124852830B7
:1022700051F090E080E0DF91CF911F910F91FF909E
:10228000EF90DF9008957A01EB018C01D12C63E08F
:1022900070E08D2D0E94190C811128C0F801D486A0
:1022A000F8018485883029F32091000130910101E3
:1022B0002F5F3F4F19F130930101209300014091AE
:1022C00000015091010161E00E943F0C8A818F3F23
:1022D000C1F48B818F3F01F58C818F3FE9F48D81B3
:1022E0008F3FD1F488E0F8018487C3CF8B7F88319A
:1022F000A9F2D394F8E0DF12CACFD2CF20E034E0C5
:10230000DACF811109C08B81811106C08C818111C6
:1023100003C08D81882331F3E114F10419F3F8012E
:10232000D484AE014E5F5F4F6D2D6295660F607E67
:10233000645F24E030E08CE090E00E944F0A4F2D73
:1023400060E170E08D2D0E94570B4E2D61E170E031
:102350008D2D0E94570B64E070E08D2D0E94220CA1
:10236000C8010E94120E873161F061E070E080E0E8
:1023700090E00E942609C8010E94120E8111F0CF40
:10238000B1CF81E090E077CFDC01ED91FC91048C3E
:10239000F58DE02D0994DC01ED91FC91028CF38D1B
:1023A000E02D099591E08927089590E080E0089557
:1023B0000F931F93CF93DF93FC01048115810115C7
:1023C000110539F4FB011082DF91CF911F910F911C
:1023D00008950430110510F004E010E0EB01FC0159
:1023E00060817181A801CE010E944728C00FD11FD2
:1023F0001882EACFCF93DF932091C7023091C802B1
:10240000232B89F0FC01C091C302D091C4026081EA
:102410007181CE010E945628009729F08C1B9D0BDC
:10242000DF91CF9108958FEF9FEFFACF0F931F9316
:10243000CF93DF93CDB7DEB728970FB6F894DEBF02
:102440000FBECDBF8C01DC01ED91FC910680F781C0
:10245000E02D0995F80184850E94870D892BB1F143
:1024600048E050E0BE016F5F7F4FD8011C968C9111
:102470000E94FA0E18161906F4F4D801519684E059
:10248000FE01319601900D928A95E1F78D8190E0E1
:10249000982F88272E81820F911DF801968B858BAE
:1024A0008F81282F30E0322F22278885820F932FAB
:1024B000911D928F818F28960FB6F894DEBF0FBEC4
:1024C000CDBFDF91CF911F910F91089590E080E0F3
:1024D000F2CF4F925F926F927F928F929F92AF92C4
:1024E000BF92CF92DF92EF92FF920F931F93CF9301
:1024F000DF93CDB7DEB763970FB6F894DEBF0FBE9C
:10250000CDBF7C016B013A01FB01DB018D91811193
:10251000FDCF30E020E090E080E05AE0419144239C
:1025200001F1843091050CF042C04E3269F42F3F26
:10253000310509F0E4F5D301A80FB91F12962C93C9
:10254000019630E020E0EACF529FB001539F700D1A
:102550001124242F440F330B20533109260F371F2A
:10256000DDCF2F3F310509F014F584309105FCF4DF
:10257000680E791EF3012283CC24C394D12CC601AA
:1025800063960FB6F894DEBF0FBECDBFDF91CF913B
:102590001F910F91FF90EF90DF90CF90BF90AF9081
:1025A0009F908F907F906F905F904F900895F7016C
:1025B00042815381648175818091B9029091BA0200
:1025C000A091BB02B091BC02481759076A077B076C
:1025D00009F400C28701085F1F4F0E94DD096F7078
:1025E00077277C5FC8010E94C70F813009F0F7C1CF
:1025F00089E891E09A838983F70182819381A4819C
:10260000B5818B839C83AD83BE8345E350E0BE01DF
:102610006F5F7F4FC8010E94880B892B31F4D12C4A
:10262000C12CC8010E94730CAACF0E94DD09F701DA
:102630007783668342E050E0B7016A5F7F4FC8014D
:102640000E94E00D81E090E09A83898342E050E0AF
:10265000BE016F5F7F4FC8010E94E00D80E091E0F6
:102660009A83898342E050E0BE016F5F7F4FC801CB
:102670000E94E00D1A82198242E050E0BE016F5FB5
:102680007F4FC8010E94E00D42E050E0BE016F5F45
:102690007F4FC8010E94E00D42E050E0BE016F5F35
:1026A0007F4FC8010E94E00D5601F601808188230A
:1026B00001F16501F60181912F01882311F08E321D
:1026C000B1F446018A189B081814190474F48D8615
:1026D00041E050E0BE01635F7F4FC8010E94E00D02
:1026E000A401B501C8010E94E00D5201DECF6201D4
:1026F000E1CF1D8641E050E0BE01635F7F4FC8011E
:102700000E94E00DC12CDD24D394DA82C98242E01C
:1027100050E0BE016F5F7F4FC8010E94E00DDA827A
:10272000C98242E050E0BE016F5F7F4FC8010E9446
:10273000E00DC8010E949E0F892B09F470CFF3E0D1
:10274000AF2EB12C230122E0420E511C43C0F701F1
:102750004281538164817581818D928DA38DB48D69
:10276000481759076A077B0709F02AC1858D968D9E
:10277000C59709F025C181A192A10C970CF425C140
:102780004CE050E0BE016F5F7F4FC8010E94370FE1
:102790008B819C819827892798279A8B898BF701B1
:1027A0004681578129813A814217530711F497FDD9
:1027B0002FC0C8010E94600BECEFCE2EDD24DA940E
:1027C00081E0A81AB10809F42CCFFFEFCF16DF067D
:1027D00009F027CF0E94DD093B014C01C8010E948E
:1027E0001612181619060CF4B2CF0E94DD096619EC
:1027F000770988099909693873418105910508F0BD
:10280000DBC062E370E080E090E00E942609E6CF42
:102810008F709270892B41F0C8010E94600B7BEF92
:10282000C72EDD24DA94CCCF6F8078847624672499
:102830007624D12CC12C61147104D1F4C8010E94FA
:10284000600B6AEFC62EDD24DA94BACF8D85811134
:1028500017C0C8010E94560FC8010E94560FC80138
:102860000E94560FC8010E94560FFFEFCF1ADF0AD1
:102870008D819E81982789279827C816D906A8F4A4
:1028800041E050E0BE01635F7F4FC8010E94370FF7
:102890008D858823D9F28D859FEF980F9D8788239A
:1028A000A9F2C8010E94560FF6CF912C812C41E06D
:1028B00050E0BE016D5E7F4FC8010E94370F8B89CB
:1028C000982F907C61F4882389F08B899FEF980F73
:1028D0009B8B882341F0C8010E94560FF6CFC80198
:1028E0000E94560F1B8A8B898111E1CF42E050E094
:1028F000BE01615F7F4FC8010E94370F42E050E088
:10290000BE01635F7F4FC8010E94370FC8010E945C
:10291000560FC8010E94560FC8010E94560FC801E9
:102920000E94560F42E050E0BE016F5E7F4FC8012B
:102930000E94370F8F85988981159140E9F4CD84E5
:10294000DE84DC24CD24DC2481E0C816D104A1F48B
:1029500089899A898115944041F0C8010E94600BD1
:1029600057EFC52EDD24DA942BCF44E050E0B201BE
:10297000C8010E94370F24CFD12CC12C89899A8994
:10298000982789279827C816D90638F4C8010E94C5
:10299000560FFFEFCF1ADF0AF1CF2FEF821A920AFC
:1029A0006814790409F083CFC8010E94600B46EFD8
:1029B000C42EDD24DA9404CFCC24CA94DC2C00CFBE
:1029C0002EEFC22EDD24DA94FBCE9DEFC92EDD243E
:1029D000DA94F6CE8EEFC82EDD24DA94D0CDD12C49
:1029E000C12CCDCDCF92DF92EF92FF920F931F9328
:1029F000CF93DF93CDB7DEB7AF970FB6F894DEBFB6
:102A00000FBECDBF7C016A0109E811E01A8309837A
:102A10001C861B8688EE93E0A0E0B0E08D879E8741
:102A2000AF87B88B88E191E09A87898788E08D8BA2
:102A3000198F088F1A8E1B8E1C8E1D8E1BA70AA73E
:102A40001CA61DA61EA61FA68091A6029091A702F5
:102A5000A091A802B091A9028EA39FA3A8A7B9A78D
:102A60008B839C83AD83BE8318861F82AE01465D37
:102A70005F4FCE0101960E94691281309105B1F439
:102A8000D701ED91FC910488F589E02D1DA30CA3DD
:102A90008CA59DA5AEA5BFA58EA39FA3A8A7B9A7EA
:102AA000A601BE016C5D7F4FC7010995AF960FB6B9
:102AB000F894DEBF0FBECDBFDF91CF911F910F9174
:102AC000FF90EF90DF90CF900895CF92DF92EF923A
:102AD000FF920F931F93CF93DF93CDB7DEB7AF97DE
:102AE0000FB6F894DEBF0FBECDBF7C016A0109E8C6
:102AF00011E01A8309831C861B8688EE93E0A0E010
:102B0000B0E08D879E87AF87B88B88E191E09A8788
:102B1000898788E08D8B198F088F1A8E1B8E1C8EEB
:102B20001D8E1BA70AA71CA61DA61EA61FA6809168
:102B3000A6029091A702A091A802B091A9028EA32B
:102B40009FA3A8A7B9A78B839C83AD83BE83188658
:102B50001F82AE01465D5F4FCE0101960E94691251
:102B600081309105B1F4D701ED91FC910684F78590
:102B7000E02D1DA30CA38CA59DA5AEA5BFA58EA37E
:102B80009FA3A8A7B9A7A601BE016C5D7F4FC7018F
:102B90000995AF960FB6F894DEBF0FBECDBFDF919B
:102BA000CF911F910F91FF90EF90DF90CF900895FC
:102BB0000E942928FB0101900020E9F73197AF011D
:102BC000461B570BDC01ED91FC910280F381E02D57
:102BD00009948F929F92AF92BF92EF92FF920F93C0
:102BE0001F93CF93DF93CDB7DEB7A1970FB6F894BD
:102BF000DEBF0FBECDBF7C01FA01CB0119A222308E
:102C000008F42AE08E010F5D1F4F822E912CB12C0B
:102C1000A12CBF01A50194010E94CE25F901CA0192
:102C20006A300CF5605DD8016E938D01232B242B47
:102C3000252B79F790E080E0109721F0BD01C701C6
:102C40000E94DA15A1960FB6F894DEBF0FBECDBF75
:102C5000DF91CF911F910F91FF90EF90BF90AF90B8
:102C60009F908F900895695CDECF8F929F92AF9274
:102C7000BF92CF92DF92EF92FF920F931F93CF9369
:102C8000DF937C01EB016C0182E0C80ED11C47018F
:102C9000E5E08E0E911C10E000E0F60141916F011D
:102CA00050E070E060E02AE0CE010E94E9155C018E
:102CB000E881F9810190F081E02D6EE2CE01099565
:102CC0008A0D9B1D080F191FC814D90431F7F7018D
:102CD000458150E070E060E02AE0CE010E94E915F5
:102CE000800F911FDF91CF911F910F91FF90EF9077
:102CF000DF90CF90BF90AF909F908F9008956BE83A
:102D000071E00C94DA15CF93DF93FC014481558177
:102D1000608171818AE392E00E945809EC018AE3A4
:102D200092E00E947F168C0F9D1FDF91CF91089536
:102D30000F931F93CF93DF93EC010E94DA158C0160
:102D4000CE010E947F16800F911FDF91CF911F91BE
:102D50000F9108950F931F93CF93DF93EC010E947F
:102D60005B078C01CE010E947F16800F911FDF91BF
:102D7000CF911F910F9108950F931F93CF93DF93DE
:102D80008C01EB01FC01808191810097E1F0688169
:102D9000798161157105A9F0428153812C813D81B2
:102DA0004217530770F00E9440288C819D81F801E2
:102DB000958384831D821C82DF91CF911F910F9197
:102DC00008950E94E32688819981F8019183808388
:102DD0008A819B81938382838C819D819583848367
:102DE000198218821B821A82E5CFFC0180819181B1
:102DF000009711F00C94E3260895FC0180819181E5
:102E0000009711F00C942B2560E070E0CB01089541
:102E1000AF92BF92CF92DF92EF92FF920F931F93E8
:102E2000CF93DF93DC01CD90DC901197C114D104D6
:102E300039F01496CD91DC918C017601209761F4E4
:102E4000DF91CF911F910F91FF90EF90DF90CF9086
:102E5000BF90AF90089575015701BFEFAB1ABB0A41
:102E6000F7018081082E000C990B0E945225892BB6
:102E700091F72197CC0DDD1D8881082E000C990B50
:102E80000E945225892B29F0CE15DF0510F02197DD
:102E9000F3CFAE014F5F5F4F4E195F09D801159612
:102EA0005C934E931497CE14DF0420F4B701C6014F
:102EB0000E942E28D801ED91FC91119714968D91C6
:102EC0009C91E80FF91F1082BBCF0F931F93CF93F4
:102ED000DF93EC0188819981009759F02A813B8129
:102EE0002617370730F081E0DF91CF911F910F91C6
:102EF00008958B016F5F7F4F0E946C27009759F0F8
:102F0000998388831B830A832C813D81232B59F766
:102F1000FC011082E8CF80E0E7CFEF92FF920F93A1
:102F20001F93CF93DF93EC017B01198218821B82E0
:102F30001A821D821C82FB0101900020E9F7319763
:102F40008F01061B170BB8010E9465172881398174
:102F5000811113C02115310519F0C9010E94E32622
:102F6000198218821D821C821B821A82DF91CF91E6
:102F70001F910F91FF90EF9008951D830C83B7016F
:102F8000C901DF91CF911F910F91FF90EF900C94A9
:102F90004028EF92FF920F931F93CF93DF93EC01A2
:102FA0007B01FB0101900020E9F731978F01061B9F
:102FB000170BB8010E94651728813981811113C050
:102FC0002115310519F0C9010E94E32619821882E2
:102FD0001D821C821B821A82DF91CF911F910F915B
:102FE000FF90EF9008951D830C83B701C901DF9115
:102FF000CF911F910F91FF90EF900C944028EF928A
:10300000FF920F931F93CF93DF9300D0CDB7DEB71E
:103010008C0169831A82FC01E480F580FFEFEF1ACE
:10302000FF0AB7010E946517882381F0F80120810B
:10303000318184819581BE016F5F7F4F820F931F25
:103040000E944028F801F582E48281E00F900F9001
:10305000DF91CF911F910F91FF90EF900895CF9343
:10306000DF93EC016DE871E00E948D170E94E90981
:1030700097FD08C08A30910529F0682FCE010E9483
:10308000FF17F4CFCE01DF91CF910895CF92DF9259
:10309000EF92FF920F931F93CF93DF93CDB7DEB7DD
:1030A0006E970FB6F894DEBF0FBECDBF8AE392E0F5
:1030B0000E941308892B09F4A2C26DE871E0CE01C9
:1030C00049960E948D178AE392E00E94D1071C8ADC
:1030D0001B8A1E8A1D8A188E1F8A4AE0BE016F5FF6
:1030E0007F4F0E945B25BE016F5F7F4FCE014396ED
:1030F0000E94C917BE016D5E7F4FCE0149960E94A6
:10310000BC16CE0143960E94F5166DE871E0CE0123
:1031100049960E94C9178AE392E00E947F1661EFE8
:1031200071E08AE392E00E94AA166DED71E08AE3F5
:1031300092E00E94AA1665ED71E08AE392E00E9497
:10314000AA1665EC71E08AE392E00E94AA1660EC90
:1031500071E08AE392E00E945B0710E000E0C801A2
:103160000E94A825813130F46EE871E08AE392E094
:103170000E94DA15C8010E94A825482F50E070E08F
:1031800060E020E18AE392E00E94E9150530110534
:1031900031F060E971E08AE392E00E94DA150F5F96
:1031A0001F4F06301105D9F68AE392E00E947F1680
:1031B0006CEB71E08AE392E00E945B0786E0E82E08
:1031C000F12CC7010E94A825482F50E070E060E074
:1031D0002AE08AE392E00E94E91589E0E816F1040A
:1031E00031F062E971E08AE392E00E94DA15EFEFD4
:1031F000EE1AFE0AFAE0EF16F10419F78AE392E0FC
:103200000E947F1667EB71E08AE392E00E94AA16A3
:1032100061EB71E08AE392E00E94AA166CEA71E029
:103220008AE392E00E94AA1665EA71E08AE392E0DE
:103230000E94AA168AE392E00E941308892BD1F318
:10324000CE0101960E942F18BE016F5F7F4FCE0105
:1032500049960E94BC16CE0101960E94F516CE0139
:1032600049960E94081762EA71E08AE392E00E94A0
:103270005B07CE0149960E9483168D8D9E8D892B0A
:1032800009F4F9C2C98CDA8C64E971E0C6010E94C4
:1032900037287C01892B09F0C1C160E771E08AE31E
:1032A00092E00E94AA166DE671E08AE392E00E9425
:1032B000AA168AE392E00E941308892BD1F3CE016B
:1032C00001960E942F18BE016F5F7F4FCE01499675
:1032D0000E94BC16CE0101960E94F516CE014996B9
:1032E0000E9408176AE671E08AE392E00E945B0799
:1032F000CE0149960E9483168D8D9E8D64E571E006
:103300000C9709F0BAC262E671E08AE392E00E948B
:10331000AA166DE871E0CE0101960E948D1766E94C
:1033200071E0CE0101960E94C91770E060E0CE0105
:1033300049960E948306FC016081CE0101960E949D
:10334000FF1761E070E0CE0149960E948306FC0100
:103350006081CE0101960E94FF17BE016D5E7F4F16
:10336000CE0101960E94D81140E150E070E060E08B
:10337000CE0143960E94142490E080E00E94B02584
:1033800066E971E0CE0101960E94C91762E070E023
:10339000CE0149960E948306FC016081CE01019610
:1033A0000E94FF1763E070E0CE0149960E948306F9
:1033B000FC016081CE0101960E94FF17BE016D5E87
:1033C0007F4FCE0101960E94D81140E150E070E09D
:1033D00060E0CE0143960E94142481E090E00E94B8
:1033E000B02566E971E0CE0101960E94C91764E03C
:1033F00070E0CE0149960E948306FC016081CE01F7
:1034000001960E94FF1765E070E0CE0149960E9488
:103410008306FC016081CE0101960E94FF17BE0168
:103420006D5E7F4FCE0101960E94D81140E150E0C1
:1034300070E060E0CE0143960E94142482E090E0A8
:103440000E94B02566E971E0CE0101960E94C9177D
:1034500066E070E0CE0149960E948306FC0160811F
:10346000CE0101960E94FF1767E070E0CE014996F9
:103470000E948306FC016081CE0101960E94FF1725
:10348000BE016D5E7F4FCE0101960E94D81140E1D2
:1034900050E070E060E0CE0143960E94142483E087
:1034A00090E00E94B02566E971E0CE0101960E948D
:1034B000C91768E070E0CE0149960E948306FC01BE
:1034C0006081CE0101960E94FF1769E070E0CE0195
:1034D00049960E948306FC016081CE0101960E94FC
:1034E000FF17BE016D5E7F4FCE0101960E94D8117D
:1034F00040E150E070E060E0CE0143960E94142469
:1035000084E090E00E94B02566E971E0CE0101966A
:103510000E94C9176AE070E0CE0149960E948306B6
:10352000FC016081CE0101960E94FF176BE070E004
:10353000CE0149960E948306FC016081CE0101966E
:103540000E94FF17BE016D5E7F4FCE0101960E9463
:10355000D81140E150E070E060E0CE0143960E9457
:10356000142485E090E00E94B025C7010E94A825A0
:10357000813130F46EE871E08AE392E00E94DA155E
:10358000C7010E94A825482F50E070E060E020E1CC
:103590008AE392E00E94E915F5E0EF16F10431F0BC
:1035A00060E971E08AE392E00E94DA158FEFE81A91
:1035B000F80AE6E0EE16F104C1F68AE392E00E9412
:1035C0007F16CE0101960E94F51667EC70E08AE343
:1035D00092E00E94AA166CEA70E08AE392E00E94F0
:1035E000AA168AE392E00E947F1668E873E180E001
:1035F00090E00E942609CE0149960E94F5166E962B
:103600000FB6F894DEBF0FBECDBFDF91CF911F91F3
:103610000F91FF90EF90DF90CF90089569E971E0EE
:10362000C6010E943728892B09F025C163E271E0A9
:103630008AE392E00E94AA1660E271E08AE392E0D7
:103640000E94AA168AE392E00E941308892BD1F304
:10365000CE0101960E942F18BE016F5F7F4FCE01F1
:1036600049960E94BC16CE0101960E94F516CE0125
:1036700049960E9408176DE171E08AE392E00E948A
:103680005B07CE0149960E9483168D8D9E8D67E063
:1036900071E00C9709F0F1C065E171E08AE392E016
:1036A0000E94AA166DE871E0CE0101960E948D1766
:1036B0006DE871E0CE0101960E94C91770E060E0EC
:1036C000CE0149960E948306FC016081CE010196DD
:1036D0000E94FF1761E070E0CE0149960E948306C8
:1036E000FC016081CE0101960E94FF1762E070E04C
:1036F000CE0149960E948306FC016081CE010196AD
:103700000E94FF17CE0101960E94FD1686E090E010
:103710000E94B0256DE871E0CE0101960E94C917A4
:1037200063E070E0CE0149960E948306FC0160814F
:10373000CE0101960E94FF1764E070E0CE01499629
:103740000E948306FC016081CE0101960E94FF1752
:1037500065E070E0CE0149960E948306FC0160811D
:10376000CE0101960E94FF17CE0101960E94FD1620
:1037700087E090E00E94B0256DE871E0CE010196EF
:103780000E94C91766E070E0CE0149960E94830648
:10379000FC016081CE0101960E94FF1767E070E096
:1037A000CE0149960E948306FC016081CE010196FC
:1037B0000E94FF1768E070E0CE0149960E948306E0
:1037C000FC016081CE0101960E94FF17CE01019697
:1037D0000E94FD1688E090E00E94B0256DE871E03F
:1037E000CE0101960E94C91769E070E0CE014996AA
:1037F0000E948306FC016081CE0101960E94FF17A2
:103800006AE070E0CE0149960E948306FC01608167
:10381000CE0101960E94FF176BE070E0CE01499641
:103820000E948306FC016081CE0101960E94FF1771
:10383000CE0101960E94FD1689E090E00E94B0251D
:10384000C8010E94A825482F50E070E060E02AE0FF
:103850008AE392E00E94E9150930110531F062E92E
:1038600071E08AE392E00E94DA150F5F1F4F0A3081
:10387000110531F7A2CE65EF70E08AE392E00E9475
:10388000AA16A3CE1F920F920FB60F9211248F93F8
:103890009F938091E1009091E100937F9093E100EC
:1038A00083FF0FC01092E90091E09093EB0010921B
:1038B000EC0092E39093ED001092390298E090931F
:1038C000F00082FF22C093E09093E9009091F20013
:1038D000992319F09AE39093E800909112029923AA
:1038E00041F090911202915090931202911101C0F7
:1038F0005D9A90913802992341F09091380291504D
:1039000090933802911101C0289A84FF18C08091C9
:10391000E2008E7E81608093E2008091E1008F7EE4
:103920008093E100809114028E7E80618093140266
:103930009F918F910F900FBE0F901F90189580FF51
:10394000F7CF8091E2008E7E80618093E2008091CB
:10395000E1008E7E8093E100809114028E7E816072
:10396000E5CF1F920F920FB60F921124CF92DF92E4
:10397000EF92FF920F931F932F933F934F935F9379
:103980006F937F938F939F93AF93BF93EF93FF9327
:10399000CF93DF93CDB7DEB76C97DEBFCDBF10926C
:1039A000E9008091E80083FF25C068E0CE014596DC
:1039B0000E944E0782EF8093E8008D8987FF39C00F
:1039C0009091E80090FFFCCF982F907609F034C1D9
:1039D0009E894F89588D2F89F88C911131C080387C
:1039E00061F5809115028093F1001092F1008EEF45
:1039F0008093E8006C960FB6F894DEBF0FBECDBF83
:103A0000DF91CF91FF91EF91BF91AF919F918F91F6
:103A10007F916F915F914F913F912F911F910F91E6
:103A2000FF90EF90DF90CF900F900FBE0F901F9000
:103A300018959EEF9093E800C7CF1092F100D5CF74
:103A4000913059F48111D3CF4130510581F68091E5
:103A500015028D7F80931502CACF933049F48111EE
:103A6000C6CF4130510519F6809115028260F2CF20
:103A7000953041F48091E80080FFFCCF20682093CE
:103A8000E300B5CF963009F0A9C00B8D1C8D22E064
:103A90001092E9001092100210920F02F2122EC042
:103AA00010920E0210920D020E941D071F8299E0D3
:103AB0009983FA8291E09E8390EA98879AEF99879A
:103AC00020910F0230911002275F3F4F3C832B83E0
:103AD0008D831092E9001092100210920F02109341
:103AE0000E0200930D0249E050E0BE016F5F7F4F70
:103AF00080E00E94F7060E941D0779CF10930E0206
:103B000000930D020E946706DC0112960D911C9134
:103B10000115110509F451C1D801ED91FC91048002
:103B2000F581E02DBE016B5E7F4FC80109950097BE
:103B300009F03EC1F80100851185EACFF3E0FF12DC
:103B40000EC08F89882309F440C0823061F440E8B8
:103B500060E182EA92E00E94C406811148CF81E2CE
:103B60008093EB0047CF813029F440E867E08AE991
:103B700092E0F1CF833099F70E946706DC0112963C
:103B8000ED90FC908E010F5F1F4F6801E114F1046E
:103B900079F0D701ED91FC910680F781E02DB80115
:103BA000C7010995080F111DF701E084F184EECFDC
:103BB000D8011C92F60101900020E9F73197BF016E
:103BC0006C197D0940E0C601C6CF64E872E0FB01D4
:103BD000449150E080E80E94F70609CF973009F43D
:103BE000BECF983021F481E08093F10000CF99306E
:103BF00009F0FDCE837009F0B2CFEDE3F1E081E092
:103C000031E096E32191222371F08093E900309313
:103C1000EB00DF0111972C912093EC009093ED00C5
:103C20008F5F873079F78EE78093EA001092EA0081
:103C30008F8980933902DBCE8B8D9C8D1092E900A9
:103C40001092100210920F0290930E0280930D02B8
:103C5000898D811192C08E899D89913A49F4813272
:103C600009F07DCF47E050E066E071E080E0B3CF3F
:103C7000913209F074CF833269F48F89988DB0E066
:103C8000A0E08093020190930301A0930401B093FC
:103C90000501ADCE803269F48091E80082FFFCCF4F
:103CA00067E086E091E00E944E078BEF8093E8008A
:103CB0009ECE823209F09BCE8F8980930D01EEEF6C
:103CC000FFE7859194918B3F9C4D51F1E0E0F8E046
:103CD0008091060190910701A0910801B09109011E
:103CE000803B9440A105B105F1F480910D0180FD68
:103CF0001AC0EE3F8AE0F80789F587E797E79183D6
:103D00008083809160008093110288E19BE00FB670
:103D1000F894A895809360000FBE9093600067CEE2
:103D2000EEEFFAE0D5CF808191818737974709F090
:103D30005ECEA8958091600088618093600080913C
:103D4000110280936000EE3F2AE0F20789F0809133
:103D5000FE0A9091FF0A9183808349CE80819181F0
:103D60008737980751F29093FF0A8093FE0AC5CFD8
:103D70001092FF0A1092FE0A3ACE0E946706DC01FA
:103D800012960D911C910115110509F4E8CED80188
:103D9000ED91FC910190F081E02DBE016B5E7F4FB3
:103DA000C8010995811123CEF80100851185EBCF5B
:103DB000181619060CF41BCED2CEF1E0FF12BECEBF
:103DC00068E872E004CF1F920F920FB60F92112491
:103DD0002F933F938F939F93AF93BF93809105024F
:103DE00090910602A0910702B0910802309104025E
:103DF00023E0230F2D3758F50196A11DB11D209307
:103E000004028093050290930602A0930702B093E8
:103E100008028091090290910A02A0910B02B091D0
:103E20000C020196A11DB11D8093090290930A0214
:103E3000A0930B02B0930C02BF91AF919F918F9111
:103E40003F912F910F900FBE0F901F90189526E86D
:103E5000230F0296A11DB11DD2CFFF920F931F9386
:103E6000CF93DF93EAE3F2E01382128288EE93E0CD
:103E7000A0E0B0E084839583A683B78389E691E0D0
:103E8000918380838FEF9FEF95878487EAE8F2E044
:103E900080E58083FF24F394F182ECE8F2E0C9E846
:103EA000D1E0D183C0831282138214821582E2E9A9
:103EB000F2E0D183C0831282138214821582E8E972
:103EC000F2E0D183C0831282138214821582EEE95C
:103ED000F2E0D183C0831282138214821582E1EB57
:103EE000F2E0D183C0831282138214821582E4EA45
:103EF000F2E0D183C083128213821482158213866A
:103F000012868AE08487E7EBF2E0D183C0831282D5
:103F1000138214821582EDEBF2E0D183C08312820A
:103F2000138214821582EBEEF2E0D183C0831282F9
:103F300013821482158290E080E00E94A82505EE8D
:103F400012E0F801808381E090E00E94A825F8014A
:103F5000818382E090E00E94A825F801828383E0BB
:103F600090E00E94A825F801838384E090E00E94FD
:103F7000A825F801848385E090E00E94A825F80137
:103F8000858386E090E00E94A82501EE12E0F8010A
:103F9000808387E090E00E94A825F801818388E073
:103FA00090E00E94A825F801828389E090E00E94B9
:103FB000A825F8018383EBEDF2E0D183C0838FEF76
:103FC0008283838384831582E5EDF2E0D183C0830D
:103FD00090EC928388EA8383F482F582EFECF2E03E
:103FE000D183C08392838383F482F582E9ECF2E08B
:103FF000138212828BE791E09183808380E590E0C9
:10400000958384836DE871E083EC92E0DF91CF913A
:104010001F910F91FF900C948D17CF93DF93CDB725
:10402000DEB7A6970FB6F894DEBF0FBECDBF78946B
:1040300084B5826084BD84B5816084BD85B58260AD
:1040400085BD85B5816085BD80916E00816080935E
:104050006E001092810080918100826080938100C7
:1040600080918100816080938100809180008160D7
:104070008093800080919100826080939100809174
:104080009100816080939100809190008160809385
:1040900090008091C10084608093C1008091C10034
:1040A00082608093C1008091C10081608093C100D3
:1040B0008091C30081608093C3008091C0008260C2
:1040C0008093C0008091C20081608093C200809183
:1040D0007A00846080937A0080917A008260809375
:1040E0007A0080917A00816080937A0080917A00D2
:1040F000806880937A001092390210921502109213
:1041000014028091D70081608093D70080EA809369
:10411000D80089B5806189BD89B5826089BD09B43F
:1041200000FEFDCF61E070E080E090E00E94260993
:104130008091D8008F7C80618093D8008091E000CE
:10414000807F8093E0008091E1008E7E8093E1008B
:104150008DE08093E200559A209A80E29EE4A0E0F0
:10416000B0E080933E0290933F02A0934002B09350
:10417000410260E084E10E94D00860E085E10E9495
:10418000D00861E087E00E94D00861E088E00E94EA
:10419000D00861E084E00E94D00861E084E00E94E1
:1041A000A20890E080E00E94A8258F3FF9F481E00A
:1041B00090E00E94A8258F3FC9F482E090E00E9421
:1041C000A8258F3F99F483E090E00E94A8258F3FB7
:1041D00069F484E090E00E94A8258F3F39F485E0DF
:1041E00090E00E94A8258F3F09F4AFC089E891E0D4
:1041F0009A8389834091DD025091DE026091DF0253
:104200007091E0024B835C836D837E839F878E87F2
:104210004091D7025091D8026091D9027091DA0290
:10422000488B598B6A8B7B8B9C8F8B8F4091D102F3
:104230005091D2026091D3027091D4024D8F5E8F63
:104240006F8F78A39AA389A38091E1029091E202F3
:10425000A091E302B091E4028BA39CA3ADA3BEA303
:104260009E012F5F3F4FAE01425F5F4FBE01655E13
:104270007F4FCE0181960E94A20A89EC92E00E94B3
:10428000F50F8FEF9FEF909347028093460298EED1
:10429000C92E93E0D92EE12CF12C07E411E020E0A7
:1042A000822E20E0922E7724739489EC92E00E9473
:1042B000810E86E1A82E82E0B82E612C1C821B8222
:1042C000CD82DE82EF82F8861A8309836D86F5013E
:1042D000219131915F018091CD029091CE022817FA
:1042E000390709F055C0CE0101960E94120E8731A0
:1042F00009F047C0CE0101960E94A30D892B09F455
:1043000047C08B819C81998B888B8D819E81AF81E9
:10431000B8858A8B9B8BAC8BBD8B89859A85AB8549
:10432000BC858E8B9F8BA88FB98F1F870E878D853D
:104330008A8F8A8D8830D1F50E94461881149104A5
:1043400009F4B3CF0E940000B0CF1FEF61E070E02E
:1043500080E090E00E9426090E9446181150B1F7B3
:1043600063EB72E08AE392E00E94AA1684E00E9466
:10437000790861E0892B09F060E084E00E94A208DE
:10438000E4CFCE0101960E94120E8C3109F4B2CF17
:104390006394F8E06F1292CF198A188ACA8ADB8A6E
:1043A000EC8AFD8A1F870E876A8EC3CFBB24B39425
:1043B000CE010E960E941C0E882309F4E7C0CE01A0
:1043C0000E960E94A30D892B99F3CE010E960E94A2
:1043D000840FA82E682F83EC92E00E94FF178AE0DA
:1043E000A81218C2BB2011F36BE971E0CE010E9642
:1043F0000E9498166BEA71E0CE010E960E94981604
:1044000063EC71E0CE010E960E949816CE010E96D6
:104410000E947F166AED71E0CE0101960E948D1711
:10442000CE0101960E94FA115C01CE0101960E9414
:10443000F516B7FCD0C0888999899C838B838A89BB
:104440009B89AC89BD898D839E83AF83B8878E8914
:104450009F89A88DB98D89879A87AB87BC871A8376
:1044600009838A8D8D8762E477E0CE0101960E94F0
:10447000AA1684E10E94790868E277E0892B11F49A
:104480006FEE76E0CE0101960E94AA1685E10E94A9
:10449000790865ED76E0892B11F46CE976E0CE01C0
:1044A00001960E94AA1667E976E0CE0101960E9465
:1044B000AA1680912702882309F473C061E087E07F
:1044C0000E94A20867E176E0CE0101960E945B0798
:1044D00062EB75E0CE0101960E945B0764EC74E02C
:1044E000CE0101960E94AA1662EB74E0CE010196FD
:1044F0000E94AA1680912602882309F45FC061E019
:1045000088E00E94A20862E374E0CE0101960E9456
:104510005B076DEC73E0CE0101960E945B076FEDC7
:1045200072E0CE0101960E94AA166DEC72E0CE01F7
:1045300001960E94AA1665EC72E0CE0101960E94D7
:10454000AA1666EE71E0CE0101960E948D17CE018B
:1045500001960E94FA115C01CE0101960E94F516A7
:10456000B7FC1CC1709227024091C7025091C8024B
:104570006091C3027091C4028AE392E00E945809DC
:104580006DE871E083EC92E00E94C91761E070E091
:1045900080E090E00E942609CE010E960E943F0E18
:1045A000CBCE60E087E00E94A20861E475E0CE0116
:1045B00001960E945B076CEC74E08CCF60E088E0B1
:1045C0000E94A2086CE573E0CE0101960E945B0791
:1045D00067EE72E0A0CF63EA7BE0CE010E960E9408
:1045E000AA166CE97BE0CE010E960E94AA1665E938
:1045F0007BE0CE010E960E94AA1665E67BE0CE0116
:104600000E960E94AA1663E47BE0CE010E960E94ED
:10461000AA166AE37BE0CE010E960E94AA166FE10D
:104620007BE0CE010E960E94AA1666EF7AE0CE01DC
:104630000E960E94AA1667ED7AE0CE010E960E94B1
:10464000AA1660EC7AE0CE010E960E94AA1664E9E2
:104650007AE0CE010E960E94AA1663E67AE0CE01B9
:104660000E960E94AA166FE37AE0CE010E960E9483
:10467000AA1665E17AE0CE010E960E94AA1669EFAD
:1046800079E0CE010E960E94AA166FED79E0CE0178
:104690000E960E94AA166EEB79E0CE010E960E944D
:1046A000AA166CE779E0CE010E960E94AA1667E77B
:1046B00079E0CE010E960E94AA1663E479E0CE015D
:1046C0000E960E94AA166FE279E0CE010E960E9425
:1046D000AA166AE079E0CE010E960E94AA1668E05A
:1046E00079E0CE010E960E94AA166EEF78E0CE0118
:1046F0000E960E94AA1666EF78E0CE010E960E94F2
:10470000AA1669EC78E0CE010E960E94AA1668E916
:1047100078E0CE010E960E94AA1668E778E0CE01F6
:104720000E960E94AA1661E378E0CE010E960E94D2
:10473000AA1664EF77E0CE010E960E94AA1661EEEB
:1047400077E0CE010E960E94AA166AED77E0CE01C0
:104750000E960E94AA1661ED77E0CE010E960E9499
:10476000AA166CEC77E0CE010E960E94AA166EE6B1
:1047700077E0CE010E960E94AA1664E677E0CE019D
:104780000E960E94AA166CE577E0CE010E960E9466
:10479000AA1664E577E0CE010E96D1CE6DEE71E0FB
:1047A000CE0101960E948D17CE0101960E94FA114A
:1047B0005C01CE0101960E94F516B7FC03C0109271
:1047C0002702D2CE65EF71E0CE0101960E948D17CF
:1047D000CE0101960E94FA115C01CE0101960E9461
:1047E000F516B7FC03C070922602BECE6CEF71E0E6
:1047F000CE0101960E948D17CE0101960E94FA11FA
:104800005C01CE0101960E94F516B7FCADCE109268
:104810002602AACEEDE0AE1609F4CACDB12CC8CD61
:1048200083EC92E00C94F516B0E0A0E0EAE1F4E24B
:104830000C94FC255C016B017A016115710519F07E
:10484000FB0191838083E114F10451F0C7010297C9
:10485000839730F040E030E020E090E072C05E01ED
:10486000E5012196F5011081812F90E00E945225EB
:10487000892BA9F71D3201F52196F501118101E07F
:10488000E114F10409F4DAC0F0E1EF16F10409F0E3
:1048900082C0103359F488818F7D883509F076C045
:1048A000198122960260F0E1EF2EF12C812C912CDF
:1048B000A12C88E0B82E8CC01B3221F4E501229691
:1048C000F501118100E0DCCFEAE0EE16F10409F415
:1048D000BBC0F0E1EF16F10409F06DC0E7CF78E05E
:1048E000E72EF12C812C912CA12C60E1B62E70C00A
:1048F0003FE9310F3A3128F439EA332E80C021E004
:104900009AC0302F3170C114D10431F0222309F143
:104910002197F601D183C08327FF21C060E070E0BA
:1049200080E090E8311104C06FEF7FEF8FEF9FE7D9
:1049300022E230E03093F2022093F102462F372F2B
:10494000282F642F732F822FCDB7DEB7E1E10C94AF
:10495000182601FF04C02297F601D183C0833323B8
:1049600041F090958095709561957F4F8F4F9F4F47
:10497000E5CF97FFE3CF82E290E09093F20280933D
:10498000F1026FEF7FEF8FEF9FE7D8CF10E3E114D5
:10499000F10409F4A4CF28E0E216F10409F4A2CF4F
:1049A0000CF092CF812C912CA12CE0E4BE2E82E061
:1049B000E816F10469F060E070E080E090E89701AB
:1049C0000F2C000C440B550B0E94CE2549015A01B7
:1049D00020E060E070E0CB0127010F2C000C66089E
:1049E0007708FE0150ED352E310E39E0331540F4D5
:1049F0003FEB310F3A3108F07BCF49EC342E310ECA
:104A00003E141F040CF07DCF27FD15C086169706B7
:104A1000A806B90678F0A30192010E94BE25630D95
:104A2000711D811D911D61307105810520E892077E
:104A300008F465CF2FEF21961081D3CF103309F4FE
:104A40002ACF2AE0E22EF12C9CEC892E982CA82C5F
:104A50009CE0B92EBDCF1F93FC0199278827BC018C
:104A6000E89411911032E9F3193010F01E30C8F3B8
:104A70001B3251F01D3249F4689406C00E9466252D
:104A8000610F711D811D911D119110531A30B0F3EA
:104A90003EF490958095709561957F4F8F4F9F4F15
:104AA0001F91089591110C949525803219F0895029
:104AB0008550C8F70895BB274A3031F4992322F472
:104AC000BDE2909581959F4F0C947C25592F482FDE
:104AD000372F262F660F771F881F991F660F771FA6
:104AE000881F991F620F731F841F951F660F771F02
:104AF000881F991F0895BB27FB015527AA27880FF8
:104B0000991FAA1FA41710F0A41B83955051B9F741
:104B1000A05DAA3308F0A95DA193009779F7B111C0
:104B2000B1931192CB010C94982599278827089569
:104B3000DC01FC01672F71917723E1F7329704C004
:104B40007C916D9370836291AE17BF07C8F308958F
:104B5000F999FECF92BD81BDF89A992780B5089545
:104B6000262FF999FECF1FBA92BD81BD20BD0FB689
:104B7000F894FA9AF99A0FBE01960895DB018F9383
:104B80009F930E94F025BF91AF91A29F800D911D30
:104B9000A39F900DB29F900D11240895A1E21A2EAB
:104BA000AA1BBB1BFD010DC0AA1FBB1FEE1FFF1FD1
:104BB000A217B307E407F50720F0A21BB30BE40B21
:104BC000F50B661F771F881F991F1A9469F7609568
:104BD0007095809590959B01AC01BD01CF01089522
:104BE0000E943226A59F900DB49F900DA49F800D2A
:104BF000911D112408952F923F924F925F926F92D0
:104C00007F928F929F92AF92BF92CF92DF92EF925C
:104C1000FF920F931F93CF93DF93CDB7DEB7CA1BDD
:104C2000DB0B0FB6F894DEBF0FBECDBF09942A8808
:104C3000398848885F846E847D848C849B84AA84B0
:104C4000B984C884DF80EE80FD800C811B81AA813D
:104C5000B981CE0FD11D0FB6F894DEBF0FBECDBF08
:104C6000ED010895A29FB001B39FC001A39F700DF5
:104C7000811D1124911DB29F700D811D1124911D64
:104C80000895EE0FFF1F0590F491E02D09940F9306
:104C90001F93CF93DF938230910510F482E090E070
:104CA000E091F502F091F60230E020E0B0E0A0E003
:104CB000309799F42115310509F44AC0281B390BA6
:104CC00024303105D8F58A819B816115710589F100
:104CD000FB0193838283FE0111C0408151810281D7
:104CE000138148175907E0F04817590799F41097AE
:104CF00061F012960C93129713961C933296CF0183
:104D0000DF91CF911F910F9108950093F5021093B9
:104D1000F602F4CF2115310551F04217530738F050
:104D2000A901DB019A01BD01DF01F801C1CFEF014B
:104D3000F9CF9093F6028093F502CDCFFE01E20FFA
:104D4000F31F819391932250310939832883D7CF60
:104D50002091F3023091F402232B41F420911001B1
:104D6000309111013093F4022093F30220910E014F
:104D700030910F012115310541F42DB73EB7409117
:104D8000120150911301241B350BE091F302F091B5
:104D9000F402E217F307A0F42E1B3F0B2817390784
:104DA00078F0AC014E5F5F4F2417350748F04E0F87
:104DB0005F1F5093F4024093F302819391939FCF2E
:104DC000F0E0E0E09CCFCF93DF930097E9F0FC01A7
:104DD000329713821282A091F502B091F602ED0192
:104DE00030E020E01097A1F420813181820F931FE1
:104DF0002091F3023091F4022817390709F061C0BD
:104E0000F093F402E093F302DF91CF910895EA0169
:104E1000CE17DF07E8F54A815B819E0141155105F8
:104E2000B1F7E901FB83EA8349915991C40FD51F7A
:104E3000EC17FD0761F4808191810296840F951F24
:104E4000E90199838883828193819B838A83F0E03F
:104E5000E0E012968D919C9113970097B9F52D91F2
:104E60003C911197CD010296820F931F2091F3027E
:104E70003091F4022817390739F6309751F510921E
:104E8000F6021092F502B093F402A093F302BCCFA5
:104E9000D383C28340815181840F951FC817D907DE
:104EA00061F44E5F5F4F88819981480F591F51838C
:104EB00040838A819B81938382832115310509F088
:104EC000B0CFF093F602E093F5029ECFFD01DC0136
:104ED000C0CF13821282D7CFB0E0A0E0E2E7F7E2C2
:104EE0000C94FD258C01009751F4CB010E944726BC
:104EF0008C01C801CDB7DEB7E0E10C941926FC01A6
:104F0000E60FF71F9C0122503109E217F30708F45E
:104F10009DC0D901CD91DC911197C617D70798F0A4
:104F2000C530D10530F3CE0104978617970708F3F3
:104F3000C61BD70B2297C193D1936D937C93CF015E
:104F40000E94E326D6CF5B01AC1ABD0A4C018C0E41
:104F50009D1EA091F502B091F602512C412CF12C2E
:104F6000E12C109731F58091F3029091F4028815AD
:104F7000990509F05CC04616570608F058C08091A4
:104F80000E0190910F01009741F48DB79EB74091AB
:104F9000120150911301841B950BE817F90708F0D3
:104FA00055C0F093F402E093F302F901718360833A
:104FB000A0CF8D919C91119712966C901297139699
:104FC0007C901397A815B90559F56C0142E0C40E01
:104FD000D11CCA14DB0420F1AC014A195B09DA01C7
:104FE0001296159780F06282738251834083D901B3
:104FF0006D937C93E114F10471F0D7011396FC9347
:10500000EE93129776CF22968C0F9D1FF901918314
:105010008083F301EFCFF093F602E093F50269CFBE
:105020004816590608F42C017D01D3019ACFCB0113
:105030000E9447267C01009749F0AE01B8010E940A
:105040002E28C8010E94E326870153CF10E000E01C
:1050500050CF81E090E0F8940C947028FB01DC01C3
:1050600002C001900D9241505040D8F70895FB01C5
:10507000DC018D91019080190110D9F3990B0895ED
:10508000FB01DC0101900D920020E1F70895FB0186
:10509000DC014150504048F001900D920020C9F7CA
:1050A00001C01D9241505040E0F70895FB0151911D
:1050B0005523A9F0BF01DC014D9145174111E1F7DE
:1050C00059F4CD010190002049F04D914015411156
:1050D000C9F3FB014111EFCF81E090E00197089502
:1050E00016E0C1E0D6E004C0FE010E9441262196F0
:0A50F000C230D107C9F7F894FFCFD2
:1050FA000004FFFFFFFF00E10000000000000000C5
:10510A00F702800000000000720BE00DD511600B61
:10511A00C70B560F140DC70FDF0B730C880BF21455
:10512A009E0F1612370FC411CF0BCB0B00C1808113
:10513A0000000000000000030C5C10D511020CA353
:10514A000D840FEE0C2E116515800F3F0E1C0E7B81
:10515A0006F70BCB1100000000AC075809CD07C2B7
:10516A00071308D107EF0700000000E10BC310D5B1
:10517A00119506F50F0000000035160D0A003000E3
:10518A003A002E0031003078003200485454502F33
:10519A00312E3120323030204F4B00436F6E746510
:1051AA006E742D547970653A20746578742F68741A
:1051BA006D6C00436F6E6E656374696F6E3A206B37
:1051CA006565702D616C69766500616A61785F73E7
:1051DA00776974636800444F303D4F4E00444F3046
:1051EA003D4F464600444F313D4F4E00444F313DFE
:0451FA004F464600D6
:00000001FF
